{
  "contractName": "AccountService",
  "abi": [
    {
      "constant": false,
      "inputs": [],
      "name": "unpause",
      "outputs": [],
      "payable": false,
      "stateMutability": "nonpayable",
      "type": "function"
    },
    {
      "constant": true,
      "inputs": [],
      "name": "inited",
      "outputs": [
        {
          "name": "",
          "type": "bool"
        }
      ],
      "payable": false,
      "stateMutability": "view",
      "type": "function"
    },
    {
      "constant": true,
      "inputs": [],
      "name": "paused",
      "outputs": [
        {
          "name": "",
          "type": "bool"
        }
      ],
      "payable": false,
      "stateMutability": "view",
      "type": "function"
    },
    {
      "constant": true,
      "inputs": [],
      "name": "config",
      "outputs": [
        {
          "name": "",
          "type": "address"
        }
      ],
      "payable": false,
      "stateMutability": "view",
      "type": "function"
    },
    {
      "constant": false,
      "inputs": [],
      "name": "pause",
      "outputs": [],
      "payable": false,
      "stateMutability": "nonpayable",
      "type": "function"
    },
    {
      "constant": false,
      "inputs": [],
      "name": "refresh",
      "outputs": [],
      "payable": false,
      "stateMutability": "nonpayable",
      "type": "function"
    },
    {
      "inputs": [],
      "payable": false,
      "stateMutability": "nonpayable",
      "type": "constructor"
    },
    {
      "constant": false,
      "inputs": [
        {
          "name": "userId",
          "type": "uint128"
        },
        {
          "name": "userName",
          "type": "string"
        },
        {
          "name": "balance",
          "type": "uint64"
        }
      ],
      "name": "register",
      "outputs": [],
      "payable": false,
      "stateMutability": "nonpayable",
      "type": "function"
    },
    {
      "constant": true,
      "inputs": [
        {
          "name": "addr",
          "type": "address"
        }
      ],
      "name": "getAccount",
      "outputs": [
        {
          "name": "",
          "type": "address"
        },
        {
          "name": "",
          "type": "uint128"
        },
        {
          "name": "",
          "type": "string"
        },
        {
          "name": "",
          "type": "uint32"
        },
        {
          "name": "",
          "type": "uint128"
        }
      ],
      "payable": false,
      "stateMutability": "view",
      "type": "function"
    },
    {
      "constant": true,
      "inputs": [
        {
          "name": "addr",
          "type": "address"
        }
      ],
      "name": "getBalance",
      "outputs": [
        {
          "name": "",
          "type": "uint128"
        }
      ],
      "payable": false,
      "stateMutability": "view",
      "type": "function"
    },
    {
      "constant": true,
      "inputs": [],
      "name": "getAccountList",
      "outputs": [
        {
          "name": "",
          "type": "bytes20[]"
        },
        {
          "name": "",
          "type": "string[]"
        }
      ],
      "payable": false,
      "stateMutability": "view",
      "type": "function"
    },
    {
      "constant": false,
      "inputs": [
        {
          "name": "_config",
          "type": "address"
        }
      ],
      "name": "init",
      "outputs": [],
      "payable": false,
      "stateMutability": "nonpayable",
      "type": "function"
    }
  ],
  "bytecode": "0x608060405260008060146101000a81548160ff0219169083151502179055506000600260146101000a81548160ff02191690831515021790555034801561004557600080fd5b50336000806101000a81548173ffffffffffffffffffffffffffffffffffffffff021916908373ffffffffffffffffffffffffffffffffffffffff16021790555061135b806100956000396000f3006080604052600436106100af576000357c0100000000000000000000000000000000000000000000000000000000900463ffffffff16806319ab453c146100b45780632843314e146100dd5780633f4ba83a1461010957806343c885ba146101205780635c975abb1461014b57806379502c55146101765780638456cb59146101a1578063c4e552a4146101b8578063f8ac93e8146101e1578063f8b2cb4f146101f8578063fbcbc0f114610235575b600080fd5b3480156100c057600080fd5b506100db60048036036100d69190810190610b56565b610276565b005b3480156100e957600080fd5b506100f261041e565b604051610100929190610f7d565b60405180910390f35b34801561011557600080fd5b5061011e6104ec565b005b34801561012c57600080fd5b5061013561057e565b6040516101429190610fb4565b60405180910390f35b34801561015757600080fd5b50610160610591565b60405161016d9190610fb4565b60405180910390f35b34801561018257600080fd5b5061018b6105a4565b6040516101989190610fcf565b60405180910390f35b3480156101ad57600080fd5b506101b66105ca565b005b3480156101c457600080fd5b506101df60048036036101da9190810190610ccc565b61065e565b005b3480156101ed57600080fd5b506101f6610710565b005b34801561020457600080fd5b5061021f600480360361021a9190810190610b56565b610712565b60405161022c919061100a565b60405180910390f35b34801561024157600080fd5b5061025c60048036036102579190810190610b56565b6107e4565b60405161026d959493929190610f23565b60405180910390f35b600081600260006101000a81548173ffffffffffffffffffffffffffffffffffffffff021916908373ffffffffffffffffffffffffffffffffffffffff160217905550600260009054906101000a900473ffffffffffffffffffffffffffffffffffffffff1673ffffffffffffffffffffffffffffffffffffffff1663879c30c66040518163ffffffff167c010000000000000000000000000000000000000000000000000000000002815260040161032e90610fea565b602060405180830381600087803b15801561034857600080fd5b505af115801561035c573d6000803e3d6000fd5b505050506040513d601f19601f820116820180604052506103809190810190610b7f565b9050600073ffffffffffffffffffffffffffffffffffffffff168173ffffffffffffffffffffffffffffffffffffffff16141515156103be57600080fd5b80600160006101000a81548173ffffffffffffffffffffffffffffffffffffffff021916908373ffffffffffffffffffffffffffffffffffffffff1602179055506001600260146101000a81548160ff0219169083151502179055505050565b606080600160009054906101000a900473ffffffffffffffffffffffffffffffffffffffff1673ffffffffffffffffffffffffffffffffffffffff16632843314e6040518163ffffffff167c0100000000000000000000000000000000000000000000000000000000028152600401600060405180830381600087803b1580156104a757600080fd5b505af11580156104bb573d6000803e3d6000fd5b505050506040513d6000823e3d601f19601f820116820180604052506104e49190810190610c37565b915091509091565b6000809054906101000a900473ffffffffffffffffffffffffffffffffffffffff1673ffffffffffffffffffffffffffffffffffffffff163373ffffffffffffffffffffffffffffffffffffffff1614151561054757600080fd5b600060149054906101000a900460ff16151561056257600080fd5b60008060146101000a81548160ff021916908315150217905550565b600260149054906101000a900460ff1681565b600060149054906101000a900460ff1681565b600260009054906101000a900473ffffffffffffffffffffffffffffffffffffffff1681565b6000809054906101000a900473ffffffffffffffffffffffffffffffffffffffff1673ffffffffffffffffffffffffffffffffffffffff163373ffffffffffffffffffffffffffffffffffffffff1614151561062557600080fd5b600060149054906101000a900460ff1615151561064157600080fd5b6001600060146101000a81548160ff021916908315150217905550565b600160009054906101000a900473ffffffffffffffffffffffffffffffffffffffff1673ffffffffffffffffffffffffffffffffffffffff1663c4e552a48484846040518463ffffffff167c01000000000000000000000000000000000000000000000000000000000281526004016106d993929190611025565b600060405180830381600087803b1580156106f357600080fd5b505af1158015610707573d6000803e3d6000fd5b50505050505050565b565b6000600160009054906101000a900473ffffffffffffffffffffffffffffffffffffffff1673ffffffffffffffffffffffffffffffffffffffff1663f8b2cb4f836040518263ffffffff167c010000000000000000000000000000000000000000000000000000000002815260040161078b9190610f08565b602060405180830381600087803b1580156107a557600080fd5b505af11580156107b9573d6000803e3d6000fd5b505050506040513d601f19601f820116820180604052506107dd9190810190610ca3565b9050919050565b6000806060600080600160009054906101000a900473ffffffffffffffffffffffffffffffffffffffff1673ffffffffffffffffffffffffffffffffffffffff1663fbcbc0f1876040518263ffffffff167c01000000000000000000000000000000000000000000000000000000000281526004016108639190610f08565b600060405180830381600087803b15801561087d57600080fd5b505af1158015610891573d6000803e3d6000fd5b505050506040513d6000823e3d601f19601f820116820180604052506108ba9190810190610ba8565b9450945094509450945091939590929450565b60006108d98235611230565b905092915050565b60006108ed8251611230565b905092915050565b600082601f830112151561090857600080fd5b815161091b61091682611090565b611063565b9150818183526020840193506020810190508385602084028201111561094057600080fd5b60005b83811015610970578161095688826109f0565b845260208401935060208301925050600181019050610943565b5050505092915050565b600082601f830112151561098d57600080fd5b81516109a061099b826110b8565b611063565b9150818183526020840193506020810190508360005b838110156109e657815186016109cc8882610a04565b8452602084019350602083019250506001810190506109b6565b5050505092915050565b60006109fc8251611250565b905092915050565b600082601f8301121515610a1757600080fd5b8151610a2a610a25826110e0565b611063565b91508082526020830160208301858383011115610a4657600080fd5b610a518382846112dd565b50505092915050565b600082601f8301121515610a6d57600080fd5b8135610a80610a7b8261110c565b611063565b91508082526020830160208301858383011115610a9c57600080fd5b610aa78382846112ce565b50505092915050565b600082601f8301121515610ac357600080fd5b8151610ad6610ad18261110c565b611063565b91508082526020830160208301858383011115610af257600080fd5b610afd8382846112dd565b50505092915050565b6000610b12823561127c565b905092915050565b6000610b26825161127c565b905092915050565b6000610b3a8251611298565b905092915050565b6000610b4e82356112a8565b905092915050565b600060208284031215610b6857600080fd5b6000610b76848285016108cd565b91505092915050565b600060208284031215610b9157600080fd5b6000610b9f848285016108e1565b91505092915050565b600080600080600060a08688031215610bc057600080fd5b6000610bce888289016108e1565b9550506020610bdf88828901610b1a565b945050604086015167ffffffffffffffff811115610bfc57600080fd5b610c0888828901610ab0565b9350506060610c1988828901610b2e565b9250506080610c2a88828901610b1a565b9150509295509295909350565b60008060408385031215610c4a57600080fd5b600083015167ffffffffffffffff811115610c6457600080fd5b610c70858286016108f5565b925050602083015167ffffffffffffffff811115610c8d57600080fd5b610c998582860161097a565b9150509250929050565b600060208284031215610cb557600080fd5b6000610cc384828501610b1a565b91505092915050565b600080600060608486031215610ce157600080fd5b6000610cef86828701610b06565b935050602084013567ffffffffffffffff811115610d0c57600080fd5b610d1886828701610a5a565b9250506040610d2986828701610b42565b9150509250925092565b610d3c81611198565b82525050565b6000610d4d82611152565b808452602084019350610d5f83611138565b60005b82811015610d9157610d75868351610e1a565b610d7e8261117e565b9150602086019550600181019050610d62565b50849250505092915050565b6000610da88261115d565b80845260208401935083602082028501610dc185611145565b60005b84811015610dfa578383038852610ddc838351610e6e565b9250610de78261118b565b9150602088019750600181019050610dc4565b508196508694505050505092915050565b610e14816111b8565b82525050565b610e23816111c4565b82525050565b610e32816112bc565b82525050565b6000610e4382611173565b808452610e578160208601602086016112dd565b610e6081611310565b602085010191505092915050565b6000610e7982611168565b808452610e8d8160208601602086016112dd565b610e9681611310565b602085010191505092915050565b6000600f82527f437573746f6d65724163636f756e7400000000000000000000000000000000006020830152604082019050919050565b610ee4816111f0565b82525050565b610ef38161120c565b82525050565b610f028161121c565b82525050565b6000602082019050610f1d6000830184610d33565b92915050565b600060a082019050610f386000830188610d33565b610f456020830187610edb565b8181036040830152610f578186610e38565b9050610f666060830185610eea565b610f736080830184610edb565b9695505050505050565b60006040820190508181036000830152610f978185610d42565b90508181036020830152610fab8184610d9d565b90509392505050565b6000602082019050610fc96000830184610e0b565b92915050565b6000602082019050610fe46000830184610e29565b92915050565b6000602082019050818103600083015261100381610ea4565b9050919050565b600060208201905061101f6000830184610edb565b92915050565b600060608201905061103a6000830186610edb565b818103602083015261104c8185610e38565b905061105b6040830184610ef9565b949350505050565b6000604051905081810181811067ffffffffffffffff8211171561108657600080fd5b8060405250919050565b600067ffffffffffffffff8211156110a757600080fd5b602082029050602081019050919050565b600067ffffffffffffffff8211156110cf57600080fd5b602082029050602081019050919050565b600067ffffffffffffffff8211156110f757600080fd5b601f19601f8301169050602081019050919050565b600067ffffffffffffffff82111561112357600080fd5b601f19601f8301169050602081019050919050565b6000602082019050919050565b6000602082019050919050565b600081519050919050565b600081519050919050565b600081519050919050565b600081519050919050565b6000602082019050919050565b6000602082019050919050565b600073ffffffffffffffffffffffffffffffffffffffff82169050919050565b60008115159050919050565b60007fffffffffffffffffffffffffffffffffffffffff00000000000000000000000082169050919050565b60006fffffffffffffffffffffffffffffffff82169050919050565b600063ffffffff82169050919050565b600067ffffffffffffffff82169050919050565b600073ffffffffffffffffffffffffffffffffffffffff82169050919050565b60007fffffffffffffffffffffffffffffffffffffffff00000000000000000000000082169050919050565b60006fffffffffffffffffffffffffffffffff82169050919050565b600063ffffffff82169050919050565b600067ffffffffffffffff82169050919050565b60006112c782611198565b9050919050565b82818337600083830152505050565b60005b838110156112fb5780820151818401526020810190506112e0565b8381111561130a576000848401525b50505050565b6000601f19601f83011690509190505600a265627a7a72305820f9369e71db4b4b8305bbe9a1cef2233f7d680c73cc10aeded87bee69d61b07656c6578706572696d656e74616cf50037",
  "source": "pragma solidity ^0.4.2;\r\npragma experimental ABIEncoderV2;\r\n\r\nimport \"./Configurable.sol\";\r\nimport \"../data/CustomerAccount.sol\";\r\nimport \"../lifecycle/Upgradeable.sol\";\r\ncontract AccountService is Upgradeable{\r\n    CustomerAccount data;\r\n    Config public config;\r\n    bool public inited=false;\r\n\r\n\r\n    modifier whenInited() {\r\n        require(inited);\r\n        _;\r\n    }\r\n\r\n    //构造函数\r\n    function AccountService() public{\r\n\r\n    }\r\n\r\n    function register(uint128 userId,string userName,uint64 balance){\r\n        data.register(userId,userName,balance);\r\n    }\r\n\r\n    function getAccount(address addr) public view returns(address,uint128,string,uint32,uint128){\r\n        return data.getAccount(addr);\r\n    }\r\n\r\n\r\n    function getBalance(address addr)public view returns(uint128){\r\n        return data.getBalance(addr);\r\n    }\r\n\r\n    //将地址、用户名转换成bytes20\r\n    function getAccountList()public view  returns(bytes20[],string[]){\r\n        return data.getAccountList();\r\n    }\r\n\r\n    function init(address _config){\r\n        config=Config(_config);\r\n        address addr=config.getCurrentVersion(\"CustomerAccount\");\r\n        require(addr!=address(0));\r\n        data=CustomerAccount(addr);\r\n        inited=true;\r\n    }\r\n}",
  "sourcePath": "D:\\dapps\\TTVIP\\contracts\\service\\AccountService.sol",
  "compiler": {
    "name": "solc",
    "version": "0.4.23+commit.124ca40d.Emscripten.clang"
  },
  "schemaVersion": "2.0.0",
  "updatedAt": "2018-05-17T06:18:01.329Z"
}