{
  "contractName": "Config",
  "abi": [
    {
      "inputs": [],
      "payable": false,
      "stateMutability": "nonpayable",
      "type": "constructor"
    },
    {
      "constant": false,
      "inputs": [
        {
          "name": "name",
          "type": "string"
        },
        {
          "name": "publish_addr",
          "type": "address"
        }
      ],
      "name": "publishNewVersion",
      "outputs": [
        {
          "name": "",
          "type": "bool"
        }
      ],
      "payable": false,
      "stateMutability": "nonpayable",
      "type": "function"
    },
    {
      "constant": false,
      "inputs": [
        {
          "name": "name",
          "type": "string"
        },
        {
          "name": "publish_addr",
          "type": "address"
        }
      ],
      "name": "addVersion",
      "outputs": [
        {
          "name": "",
          "type": "bool"
        }
      ],
      "payable": false,
      "stateMutability": "nonpayable",
      "type": "function"
    },
    {
      "constant": true,
      "inputs": [
        {
          "name": "name",
          "type": "string"
        },
        {
          "name": "ver_num",
          "type": "uint32"
        }
      ],
      "name": "getVersionInfo",
      "outputs": [
        {
          "name": "",
          "type": "string"
        },
        {
          "name": "",
          "type": "uint32"
        },
        {
          "name": "",
          "type": "address"
        }
      ],
      "payable": false,
      "stateMutability": "view",
      "type": "function"
    },
    {
      "constant": false,
      "inputs": [
        {
          "name": "name",
          "type": "string"
        },
        {
          "name": "pub_addr",
          "type": "address"
        }
      ],
      "name": "setCurrentVersion",
      "outputs": [
        {
          "name": "",
          "type": "bool"
        }
      ],
      "payable": false,
      "stateMutability": "nonpayable",
      "type": "function"
    },
    {
      "constant": true,
      "inputs": [
        {
          "name": "name",
          "type": "string"
        }
      ],
      "name": "getCurrentVersion",
      "outputs": [
        {
          "name": "",
          "type": "address"
        }
      ],
      "payable": false,
      "stateMutability": "view",
      "type": "function"
    },
    {
      "constant": false,
      "inputs": [
        {
          "name": "addr",
          "type": "address"
        },
        {
          "name": "isAdmin",
          "type": "bool"
        }
      ],
      "name": "setAdmin",
      "outputs": [],
      "payable": false,
      "stateMutability": "nonpayable",
      "type": "function"
    },
    {
      "constant": true,
      "inputs": [
        {
          "name": "addr",
          "type": "address"
        }
      ],
      "name": "isAdmin",
      "outputs": [
        {
          "name": "",
          "type": "bool"
        }
      ],
      "payable": false,
      "stateMutability": "view",
      "type": "function"
    }
  ],
  "bytecode": "0x608060405234801561001057600080fd5b50336000806101000a81548173ffffffffffffffffffffffffffffffffffffffff021916908373ffffffffffffffffffffffffffffffffffffffff16021790555061006b336001610070640100000000026401000000009004565b610126565b6000809054906101000a900473ffffffffffffffffffffffffffffffffffffffff1673ffffffffffffffffffffffffffffffffffffffff163373ffffffffffffffffffffffffffffffffffffffff161415156100cb57600080fd5b80600460008473ffffffffffffffffffffffffffffffffffffffff1673ffffffffffffffffffffffffffffffffffffffff16815260200190815260200160002060006101000a81548160ff0219169083151502179055505050565b610fbf806101356000396000f300608060405260043610610083576000357c0100000000000000000000000000000000000000000000000000000000900463ffffffff1680632200919f1461008857806324d7806c146101295780634b0bddd21461018457806386825aa7146101d3578063879c30c61461030b5780638b32b02a146103b4578063fcb146af14610455575b600080fd5b34801561009457600080fd5b5061010f600480360381019080803590602001908201803590602001908080601f0160208091040260200160405190810160405280939291908181526020018383808284378201915050505050509192919290803573ffffffffffffffffffffffffffffffffffffffff1690602001909291905050506104f6565b604051808215151515815260200191505060405180910390f35b34801561013557600080fd5b5061016a600480360381019080803573ffffffffffffffffffffffffffffffffffffffff169060200190929190505050610770565b604051808215151515815260200191505060405180910390f35b34801561019057600080fd5b506101d1600480360381019080803573ffffffffffffffffffffffffffffffffffffffff1690602001909291908035151590602001909291905050506107c6565b005b3480156101df57600080fd5b5061024a600480360381019080803590602001908201803590602001908080601f0160208091040260200160405190810160405280939291908181526020018383808284378201915050505050509192919290803563ffffffff16906020019092919050505061087c565b60405180806020018463ffffffff1663ffffffff1681526020018373ffffffffffffffffffffffffffffffffffffffff1673ffffffffffffffffffffffffffffffffffffffff168152602001828103825285818151815260200191508051906020019080838360005b838110156102ce5780820151818401526020810190506102b3565b50505050905090810190601f1680156102fb5780820380516001836020036101000a031916815260200191505b5094505050505060405180910390f35b34801561031757600080fd5b50610372600480360381019080803590602001908201803590602001908080601f0160208091040260200160405190810160405280939291908181526020018383808284378201915050505050509192919290505050610ae4565b604051808273ffffffffffffffffffffffffffffffffffffffff1673ffffffffffffffffffffffffffffffffffffffff16815260200191505060405180910390f35b3480156103c057600080fd5b5061043b600480360381019080803590602001908201803590602001908080601f0160208091040260200160405190810160405280939291908181526020018383808284378201915050505050509192919290803573ffffffffffffffffffffffffffffffffffffffff169060200190929190505050610b79565b604051808215151515815260200191505060405180910390f35b34801561046157600080fd5b506104dc600480360381019080803590602001908201803590602001908080601f0160208091040260200160405190810160405280939291908181526020018383808284378201915050505050509192919290803573ffffffffffffffffffffffffffffffffffffffff169060200190929190505050610c2f565b604051808215151515815260200191505060405180910390f35b6000806002846040518082805190602001908083835b602083101515610531578051825260208201915060208101905060208303925061050c565b6001836020036101000a038019825116818451168082178552505050505050905001915050908152602001604051809103902060009054906101000a900463ffffffff1690508080600101915050806002856040518082805190602001908083835b6020831015156105b85780518252602082019150602081019050602083039250610593565b6001836020036101000a038019825116818451168082178552505050505050905001915050908152602001604051809103902060006101000a81548163ffffffff021916908363ffffffff1602179055506001846040518082805190602001908083835b602083101515610641578051825260208201915060208101905060208303925061061c565b6001836020036101000a03801982511681845116808217855250505050505090500191505090815260200160405180910390206060604051908101604052808681526020018363ffffffff1681526020018573ffffffffffffffffffffffffffffffffffffffff168152509080600181540180825580915050906001820390600052602060002090600202016000909192909190915060008201518160000190805190602001906106f3929190610eb0565b5060208201518160010160006101000a81548163ffffffff021916908363ffffffff16021790555060408201518160010160046101000a81548173ffffffffffffffffffffffffffffffffffffffff021916908373ffffffffffffffffffffffffffffffffffffffff160217905550505050600191505092915050565b6000600460008373ffffffffffffffffffffffffffffffffffffffff1673ffffffffffffffffffffffffffffffffffffffff16815260200190815260200160002060009054906101000a900460ff169050919050565b6000809054906101000a900473ffffffffffffffffffffffffffffffffffffffff1673ffffffffffffffffffffffffffffffffffffffff163373ffffffffffffffffffffffffffffffffffffffff1614151561082157600080fd5b80600460008473ffffffffffffffffffffffffffffffffffffffff1673ffffffffffffffffffffffffffffffffffffffff16815260200190815260200160002060006101000a81548160ff0219169083151502179055505050565b60606000806060600061088d610f30565b6001886040518082805190602001908083835b6020831015156108c557805182526020820191506020810190506020830392506108a0565b6001836020036101000a0380198251168184511680821785525050505050509050019150509081526020016040518091039020805480602002602001604051908101604052809291908181526020016000905b82821015610a69578382906000526020600020906002020160606040519081016040529081600082018054600181600116156101000203166002900480601f0160208091040260200160405190810160405280929190818152602001828054600181600116156101000203166002900480156109d55780601f106109aa576101008083540402835291602001916109d5565b820191906000526020600020905b8154815290600101906020018083116109b857829003601f168201915b505050505081526020016001820160009054906101000a900463ffffffff1663ffffffff1663ffffffff1681526020016001820160049054906101000a900473ffffffffffffffffffffffffffffffffffffffff1673ffffffffffffffffffffffffffffffffffffffff1673ffffffffffffffffffffffffffffffffffffffff168152505081526020019060010190610918565b505050509250600091505b8251821015610ad9578282815181101515610a8b57fe5b9060200190602002015190508663ffffffff16816020015163ffffffff161415610acc57806000015181602001518260400151829250955095509550610ada565b8180600101925050610a74565b5b5050509250925092565b60006003826040518082805190602001908083835b602083101515610b1e5780518252602082019150602081019050602083039250610af9565b6001836020036101000a038019825116818451168082178552505050505050905001915050908152602001604051809103902060009054906101000a900473ffffffffffffffffffffffffffffffffffffffff169050919050565b6000816003846040518082805190602001908083835b602083101515610bb45780518252602082019150602081019050602083039250610b8f565b6001836020036101000a038019825116818451168082178552505050505050905001915050908152602001604051809103902060006101000a81548173ffffffffffffffffffffffffffffffffffffffff021916908373ffffffffffffffffffffffffffffffffffffffff1602179055506001905092915050565b6000806002846040518082805190602001908083835b602083101515610c6a5780518252602082019150602081019050602083039250610c45565b6001836020036101000a038019825116818451168082178552505050505050905001915050908152602001604051809103902060009054906101000a900463ffffffff1690508080600101915050806002856040518082805190602001908083835b602083101515610cf15780518252602082019150602081019050602083039250610ccc565b6001836020036101000a038019825116818451168082178552505050505050905001915050908152602001604051809103902060006101000a81548163ffffffff021916908363ffffffff1602179055506001846040518082805190602001908083835b602083101515610d7a5780518252602082019150602081019050602083039250610d55565b6001836020036101000a03801982511681845116808217855250505050505090500191505090815260200160405180910390206060604051908101604052808681526020018363ffffffff1681526020018573ffffffffffffffffffffffffffffffffffffffff16815250908060018154018082558091505090600182039060005260206000209060020201600090919290919091506000820151816000019080519060200190610e2c929190610eb0565b5060208201518160010160006101000a81548163ffffffff021916908363ffffffff16021790555060408201518160010160046101000a81548173ffffffffffffffffffffffffffffffffffffffff021916908373ffffffffffffffffffffffffffffffffffffffff160217905550505050610ea88484610b79565b505092915050565b828054600181600116156101000203166002900490600052602060002090601f016020900481019282601f10610ef157805160ff1916838001178555610f1f565b82800160010185558215610f1f579182015b82811115610f1e578251825591602001919060010190610f03565b5b509050610f2c9190610f6e565b5090565b60606040519081016040528060608152602001600063ffffffff168152602001600073ffffffffffffffffffffffffffffffffffffffff1681525090565b610f9091905b80821115610f8c576000816000905550600101610f74565b5090565b905600a165627a7a723058209b463d3b89d8b840d21da840690649db609cfb5fc2214c6ea9aeafef8b6d2dba0029",
  "source": "pragma solidity ^0.4.2;\r\n\r\ncontract Config{\r\n    address owner;\r\n\r\n    struct Version{\r\n    //合约实例名称\r\n    string  name;\r\n    //版本\r\n    uint32  ver;\r\n    //部署地址\r\n    address publish_addr;\r\n    }\r\n\r\n    //合约历史版本\r\n    mapping(string=>Version[])  preVersions;\r\n\r\n    //合约最新版本号\r\n    mapping(string=>uint32) lastVersionNum;\r\n\r\n    //合约当前发布地址\r\n    mapping(string=>address)  curVersion;\r\n\r\n    //管理员账户列表\r\n    mapping(address=>bool) admins;\r\n\r\n    function Config(){\r\n        owner=msg.sender;\r\n        setAdmin(msg.sender,true);\r\n    }\r\n\r\n    modifier onlyOwner() {\r\n        require(msg.sender == owner);\r\n        _;\r\n    }\r\n\r\n    modifier onlyAdmin() {\r\n        require(admins[msg.sender]);\r\n        _;\r\n    }\r\n\r\n    function publishNewVersion(string name,address publish_addr)public   returns(bool){\r\n        uint32 ver_num=lastVersionNum[name];\r\n        ver_num++;\r\n        lastVersionNum[name]=ver_num;\r\n        preVersions[name].push(Version(name,ver_num,publish_addr));\r\n        setCurrentVersion(name,publish_addr);\r\n    }\r\n\r\n    function addVersion(string name,address publish_addr)public  returns(bool){\r\n        uint32 ver_num=lastVersionNum[name];\r\n        ver_num++;\r\n        lastVersionNum[name]=ver_num;\r\n        preVersions[name].push(Version(name,ver_num,publish_addr));\r\n        return true;\r\n    }\r\n\r\n    function getVersionInfo(string name,uint32 ver_num)public view  returns(string,uint32,address){\r\n        Version[] memory vers=preVersions[name];\r\n        for(uint i=0;i<vers.length;i++){\r\n            Version memory v=vers[i];\r\n            if(v.ver==ver_num){\r\n                return (v.name,v.ver,v.publish_addr);\r\n            }\r\n        }\r\n    }\r\n\r\n    function setCurrentVersion(string name,address pub_addr)public  returns(bool){\r\n        curVersion[name]=pub_addr;\r\n        return true;\r\n    }\r\n\r\n    function getCurrentVersion(string name)public view returns(address){\r\n        return curVersion[name];\r\n    }\r\n\r\n    function setAdmin(address addr,bool isAdmin)public  onlyOwner{\r\n        admins[addr]=isAdmin;\r\n    }\r\n\r\n    function isAdmin(address addr)public view returns(bool){\r\n        return admins[addr];\r\n    }\r\n\r\n}",
  "sourcePath": "D:\\dapps\\TTVIP\\contracts\\core\\Config.sol",
  "compiler": {
    "name": "solc",
    "version": "0.4.23+commit.124ca40d.Emscripten.clang"
  },
  "schemaVersion": "2.0.0",
  "updatedAt": "2018-05-17T06:17:56.824Z"
}