{
  "contractName": "Configurable",
  "abi": [
    {
      "constant": true,
      "inputs": [],
      "name": "config",
      "outputs": [
        {
          "name": "",
          "type": "address"
        }
      ],
      "payable": false,
      "stateMutability": "view",
      "type": "function"
    }
  ],
  "bytecode": "0x608060405234801561001057600080fd5b5060e98061001f6000396000f300608060405260043610603f576000357c0100000000000000000000000000000000000000000000000000000000900463ffffffff16806379502c55146044575b600080fd5b348015604f57600080fd5b5060566098565b604051808273ffffffffffffffffffffffffffffffffffffffff1673ffffffffffffffffffffffffffffffffffffffff16815260200191505060405180910390f35b6000809054906101000a900473ffffffffffffffffffffffffffffffffffffffff16815600a165627a7a723058209eb5da432ccb4df82690c7591fdeac8bc4147c4549256cfe9b437cd867b586940029",
  "source": "pragma solidity ^0.4.2;\r\nimport \"../core/Config.sol\";\r\ncontract Configurable{\r\n    Config public config;\r\n\r\n}",
  "sourcePath": "D:\\dapps\\TTVIP\\contracts\\service\\Configurable.sol",
  "compiler": {
    "name": "solc",
    "version": "0.4.23+commit.124ca40d.Emscripten.clang"
  },
  "schemaVersion": "2.0.0",
  "updatedAt": "2018-05-17T06:17:27.559Z"
}