{
  "contractName": "ContractService",
  "abi": [
    {
      "constant": false,
      "inputs": [],
      "name": "unpause",
      "outputs": [],
      "payable": false,
      "stateMutability": "nonpayable",
      "type": "function"
    },
    {
      "constant": true,
      "inputs": [],
      "name": "inited",
      "outputs": [
        {
          "name": "",
          "type": "bool"
        }
      ],
      "payable": false,
      "stateMutability": "view",
      "type": "function"
    },
    {
      "constant": true,
      "inputs": [],
      "name": "paused",
      "outputs": [
        {
          "name": "",
          "type": "bool"
        }
      ],
      "payable": false,
      "stateMutability": "view",
      "type": "function"
    },
    {
      "constant": true,
      "inputs": [],
      "name": "config",
      "outputs": [
        {
          "name": "",
          "type": "address"
        }
      ],
      "payable": false,
      "stateMutability": "view",
      "type": "function"
    },
    {
      "constant": false,
      "inputs": [],
      "name": "pause",
      "outputs": [],
      "payable": false,
      "stateMutability": "nonpayable",
      "type": "function"
    },
    {
      "constant": false,
      "inputs": [],
      "name": "refresh",
      "outputs": [],
      "payable": false,
      "stateMutability": "nonpayable",
      "type": "function"
    },
    {
      "inputs": [],
      "payable": false,
      "stateMutability": "nonpayable",
      "type": "constructor"
    },
    {
      "constant": false,
      "inputs": [
        {
          "name": "firstParty",
          "type": "address"
        },
        {
          "name": "secondParty",
          "type": "address"
        },
        {
          "name": "shareProfit",
          "type": "uint32"
        },
        {
          "name": "expireYear",
          "type": "uint32"
        },
        {
          "name": "txHash",
          "type": "uint160"
        },
        {
          "name": "timestamp",
          "type": "uint64"
        },
        {
          "name": "state",
          "type": "uint8"
        },
        {
          "name": "remark",
          "type": "string"
        }
      ],
      "name": "signContract",
      "outputs": [],
      "payable": false,
      "stateMutability": "nonpayable",
      "type": "function"
    },
    {
      "constant": false,
      "inputs": [
        {
          "name": "txHash",
          "type": "uint160"
        },
        {
          "name": "state",
          "type": "uint8"
        }
      ],
      "name": "confirmContract",
      "outputs": [],
      "payable": false,
      "stateMutability": "nonpayable",
      "type": "function"
    },
    {
      "constant": true,
      "inputs": [
        {
          "name": "start",
          "type": "uint128"
        },
        {
          "name": "rows",
          "type": "uint128"
        },
        {
          "name": "state",
          "type": "uint8"
        }
      ],
      "name": "getContractList",
      "outputs": [
        {
          "name": "",
          "type": "uint160[6][]"
        }
      ],
      "payable": false,
      "stateMutability": "view",
      "type": "function"
    },
    {
      "constant": true,
      "inputs": [
        {
          "name": "txHash",
          "type": "uint160"
        }
      ],
      "name": "getContractDetail",
      "outputs": [
        {
          "name": "",
          "type": "address"
        },
        {
          "name": "",
          "type": "address"
        },
        {
          "name": "",
          "type": "uint32"
        },
        {
          "name": "",
          "type": "uint32"
        },
        {
          "name": "",
          "type": "uint160"
        },
        {
          "name": "",
          "type": "uint64"
        },
        {
          "name": "",
          "type": "uint8"
        },
        {
          "name": "",
          "type": "string"
        }
      ],
      "payable": false,
      "stateMutability": "view",
      "type": "function"
    },
    {
      "constant": false,
      "inputs": [
        {
          "name": "_config",
          "type": "address"
        }
      ],
      "name": "init",
      "outputs": [],
      "payable": false,
      "stateMutability": "nonpayable",
      "type": "function"
    }
  ],
  "bytecode": "0x60806040526000600160146101000a81548160ff0219169083151502179055506000600260146101000a81548160ff02191690831515021790555034801561004657600080fd5b5033600160006101000a81548173ffffffffffffffffffffffffffffffffffffffff021916908373ffffffffffffffffffffffffffffffffffffffff1602179055506116bb806100976000396000f3006080604052600436106100af576000357c0100000000000000000000000000000000000000000000000000000000900463ffffffff16806319ab453c146100b45780633f4ba83a146100f757806343c885ba1461010e578063595f78171461013d5780635c975abb146102e857806379502c55146103175780638456cb591461036e5780639d30fb2514610385578063a5f2b34d1461048f578063ceda56911461056f578063f8ac93e8146105bf575b600080fd5b3480156100c057600080fd5b506100f5600480360381019080803573ffffffffffffffffffffffffffffffffffffffff1690602001909291905050506105d6565b005b34801561010357600080fd5b5061010c6107b2565b005b34801561011a57600080fd5b50610123610846565b604051808215151515815260200191505060405180910390f35b34801561014957600080fd5b5061017e600480360381019080803573ffffffffffffffffffffffffffffffffffffffff169060200190929190505050610859565b604051808973ffffffffffffffffffffffffffffffffffffffff1673ffffffffffffffffffffffffffffffffffffffff1681526020018873ffffffffffffffffffffffffffffffffffffffff1673ffffffffffffffffffffffffffffffffffffffff1681526020018763ffffffff1663ffffffff1681526020018663ffffffff1663ffffffff1681526020018573ffffffffffffffffffffffffffffffffffffffff1673ffffffffffffffffffffffffffffffffffffffff1681526020018467ffffffffffffffff1667ffffffffffffffff16815260200183600481111561026257fe5b60ff16815260200180602001828103825283818151815260200191508051906020019080838360005b838110156102a657808201518184015260208101905061028b565b50505050905090810190601f1680156102d35780820380516001836020036101000a031916815260200191505b50995050505050505050505060405180910390f35b3480156102f457600080fd5b506102fd610a16565b604051808215151515815260200191505060405180910390f35b34801561032357600080fd5b5061032c610a29565b604051808273ffffffffffffffffffffffffffffffffffffffff1673ffffffffffffffffffffffffffffffffffffffff16815260200191505060405180910390f35b34801561037a57600080fd5b50610383610a4e565b005b34801561039157600080fd5b5061048d600480360381019080803573ffffffffffffffffffffffffffffffffffffffff169060200190929190803573ffffffffffffffffffffffffffffffffffffffff169060200190929190803563ffffffff169060200190929190803563ffffffff169060200190929190803573ffffffffffffffffffffffffffffffffffffffff169060200190929190803567ffffffffffffffff169060200190929190803560ff169060200190929190803590602001908201803590602001908080601f0160208091040260200160405190810160405280939291908181526020018383808284378201915050505050509192919290505050610ae2565b005b34801561049b57600080fd5b506104f560048036038101908080356fffffffffffffffffffffffffffffffff16906020019092919080356fffffffffffffffffffffffffffffffff169060200190929190803560ff169060200190929190505050610cf0565b60405180806020018281038252838181518152602001915080516000925b8184101561055e57828490602001906020020151600660200280838360005b8381101561054d578082015181840152602081019050610532565b505050509050019260010192610513565b925050509250505060405180910390f35b34801561057b57600080fd5b506105bd600480360381019080803573ffffffffffffffffffffffffffffffffffffffff169060200190929190803560ff169060200190929190505050611365565b005b3480156105cb57600080fd5b506105d461166a565b005b6000816000806101000a81548173ffffffffffffffffffffffffffffffffffffffff021916908373ffffffffffffffffffffffffffffffffffffffff1602179055506000809054906101000a900473ffffffffffffffffffffffffffffffffffffffff1673ffffffffffffffffffffffffffffffffffffffff1663879c30c66040518163ffffffff167c01000000000000000000000000000000000000000000000000000000000281526004018080602001828103825260108152602001807f437573746f6d6572436f6e747261637400000000000000000000000000000000815250602001915050602060405180830381600087803b1580156106d957600080fd5b505af11580156106ed573d6000803e3d6000fd5b505050506040513d602081101561070357600080fd5b81019080805190602001909291905050509050600073ffffffffffffffffffffffffffffffffffffffff168173ffffffffffffffffffffffffffffffffffffffff161415151561075257600080fd5b80600260006101000a81548173ffffffffffffffffffffffffffffffffffffffff021916908373ffffffffffffffffffffffffffffffffffffffff1602179055506001600260146101000a81548160ff0219169083151502179055505050565b600160009054906101000a900473ffffffffffffffffffffffffffffffffffffffff1673ffffffffffffffffffffffffffffffffffffffff163373ffffffffffffffffffffffffffffffffffffffff1614151561080e57600080fd5b600160149054906101000a900460ff16151561082957600080fd5b6000600160146101000a81548160ff021916908315150217905550565b600260149054906101000a900460ff1681565b60008060008060008060006060600260009054906101000a900473ffffffffffffffffffffffffffffffffffffffff1673ffffffffffffffffffffffffffffffffffffffff166317e5f2508a6040518263ffffffff167c0100000000000000000000000000000000000000000000000000000000028152600401808273ffffffffffffffffffffffffffffffffffffffff1673ffffffffffffffffffffffffffffffffffffffff168152602001915050600060405180830381600087803b15801561092357600080fd5b505af1158015610937573d6000803e3d6000fd5b505050506040513d6000823e3d601f19601f8201168201806040525061010081101561096257600080fd5b810190808051906020019092919080519060200190929190805190602001909291908051906020019092919080519060200190929190805190602001909291908051906020019092919080516401000000008111156109c057600080fd5b828101905060208101848111156109d657600080fd5b81518560018202830111640100000000821117156109f357600080fd5b505092919050505097509750975097509750975097509750919395975091939597565b600160149054906101000a900460ff1681565b6000809054906101000a900473ffffffffffffffffffffffffffffffffffffffff1681565b600160009054906101000a900473ffffffffffffffffffffffffffffffffffffffff1673ffffffffffffffffffffffffffffffffffffffff163373ffffffffffffffffffffffffffffffffffffffff16141515610aaa57600080fd5b600160149054906101000a900460ff16151515610ac657600080fd5b60018060146101000a81548160ff021916908315150217905550565b600260009054906101000a900473ffffffffffffffffffffffffffffffffffffffff1673ffffffffffffffffffffffffffffffffffffffff1663a8eae47889898989898989896040518963ffffffff167c0100000000000000000000000000000000000000000000000000000000028152600401808973ffffffffffffffffffffffffffffffffffffffff1673ffffffffffffffffffffffffffffffffffffffff1681526020018873ffffffffffffffffffffffffffffffffffffffff1673ffffffffffffffffffffffffffffffffffffffff1681526020018763ffffffff1663ffffffff1681526020018663ffffffff1663ffffffff1681526020018573ffffffffffffffffffffffffffffffffffffffff1673ffffffffffffffffffffffffffffffffffffffff1681526020018467ffffffffffffffff1667ffffffffffffffff168152602001836004811115610c3757fe5b60ff16815260200180602001828103825283818151815260200191508051906020019080838360005b83811015610c7b578082015181840152602081019050610c60565b50505050905090810190601f168015610ca85780820380516001836020036101000a031916815260200191505b509950505050505050505050600060405180830381600087803b158015610cce57600080fd5b505af1158015610ce2573d6000803e3d6000fd5b505050505050505050505050565b6060600060606000806000806000806000600260009054906101000a900473ffffffffffffffffffffffffffffffffffffffff1673ffffffffffffffffffffffffffffffffffffffff16637bca1056336000809054906101000a900473ffffffffffffffffffffffffffffffffffffffff1673ffffffffffffffffffffffffffffffffffffffff166324d7806c336040518263ffffffff167c0100000000000000000000000000000000000000000000000000000000028152600401808273ffffffffffffffffffffffffffffffffffffffff1673ffffffffffffffffffffffffffffffffffffffff168152602001915050602060405180830381600087803b158015610dfc57600080fd5b505af1158015610e10573d6000803e3d6000fd5b505050506040513d6020811015610e2657600080fd5b81019080805190602001909291905050508e6040518463ffffffff167c0100000000000000000000000000000000000000000000000000000000028152600401808473ffffffffffffffffffffffffffffffffffffffff1673ffffffffffffffffffffffffffffffffffffffff16815260200183151515158152602001826004811115610eaf57fe5b60ff1681526020019350505050602060405180830381600087803b158015610ed657600080fd5b505af1158015610eea573d6000803e3d6000fd5b505050506040513d6020811015610f0057600080fd5b810190808051906020019092919050505098508b6fffffffffffffffffffffffffffffffff16604051908082528060200260200182016040528015610f5f57816020015b610f4c61166c565b815260200190600190039081610f445790505b509750600096505b8b6fffffffffffffffffffffffffffffffff1687101561135257600260009054906101000a900473ffffffffffffffffffffffffffffffffffffffff1673ffffffffffffffffffffffffffffffffffffffff1663016a8598338f6000809054906101000a900473ffffffffffffffffffffffffffffffffffffffff1673ffffffffffffffffffffffffffffffffffffffff166324d7806c336040518263ffffffff167c0100000000000000000000000000000000000000000000000000000000028152600401808273ffffffffffffffffffffffffffffffffffffffff1673ffffffffffffffffffffffffffffffffffffffff168152602001915050602060405180830381600087803b15801561107d57600080fd5b505af1158015611091573d6000803e3d6000fd5b505050506040513d60208110156110a757600080fd5b81019080805190602001909291905050508f6040518563ffffffff167c0100000000000000000000000000000000000000000000000000000000028152600401808573ffffffffffffffffffffffffffffffffffffffff1673ffffffffffffffffffffffffffffffffffffffff168152602001846fffffffffffffffffffffffffffffffff166fffffffffffffffffffffffffffffffff1681526020018315151515815260200182600481111561115a57fe5b60ff16815260200194505050505060c060405180830381600087803b15801561118257600080fd5b505af1158015611196573d6000803e3d6000fd5b505050506040513d60c08110156111ac57600080fd5b8101908080519060200190929190805190602001909291908051906020019092919080519060200190929190805190602001909291908051906020019092919050505095509550955095509550955060c0604051908101604052808773ffffffffffffffffffffffffffffffffffffffff1673ffffffffffffffffffffffffffffffffffffffff1681526020018673ffffffffffffffffffffffffffffffffffffffff1673ffffffffffffffffffffffffffffffffffffffff1681526020018573ffffffffffffffffffffffffffffffffffffffff1673ffffffffffffffffffffffffffffffffffffffff1681526020018467ffffffffffffffff1673ffffffffffffffffffffffffffffffffffffffff1681526020018363ffffffff1673ffffffffffffffffffffffffffffffffffffffff1673ffffffffffffffffffffffffffffffffffffffff1681526020018a6fffffffffffffffffffffffffffffffff1673ffffffffffffffffffffffffffffffffffffffff16815250888881518110151561133557fe5b90602001906020020181905250809c508680600101975050610f67565b8799505050505050505050509392505050565b60008060008060008060006060600260009054906101000a900473ffffffffffffffffffffffffffffffffffffffff1673ffffffffffffffffffffffffffffffffffffffff166317e5f2508b6040518263ffffffff167c0100000000000000000000000000000000000000000000000000000000028152600401808273ffffffffffffffffffffffffffffffffffffffff1673ffffffffffffffffffffffffffffffffffffffff168152602001915050600060405180830381600087803b15801561142f57600080fd5b505af1158015611443573d6000803e3d6000fd5b505050506040513d6000823e3d601f19601f8201168201806040525061010081101561146e57600080fd5b810190808051906020019092919080519060200190929190805190602001909291908051906020019092919080519060200190929190805190602001909291908051906020019092919080516401000000008111156114cc57600080fd5b828101905060208101848111156114e257600080fd5b81518560018202830111640100000000821117156114ff57600080fd5b5050929190505050975097509750975097509750975097508673ffffffffffffffffffffffffffffffffffffffff163273ffffffffffffffffffffffffffffffffffffffff1614801561156857506001600481111561155a57fe5b82600481111561156657fe5b145b151561157357600080fd5b600260009054906101000a900473ffffffffffffffffffffffffffffffffffffffff1673ffffffffffffffffffffffffffffffffffffffff1663e0af172d8b8b6040518363ffffffff167c0100000000000000000000000000000000000000000000000000000000028152600401808373ffffffffffffffffffffffffffffffffffffffff1673ffffffffffffffffffffffffffffffffffffffff16815260200182600481111561162057fe5b60ff16815260200192505050600060405180830381600087803b15801561164657600080fd5b505af115801561165a573d6000803e3d6000fd5b5050505050505050505050505050565b565b60c0604051908101604052806006906020820280388339808201915050905050905600a165627a7a723058209e7069b22e875aab5643b0205c2e856c00533f6fc3b9721b631de267e45864180029",
  "source": "pragma solidity ^0.4.2;\r\n\r\nimport \"../data/CustomerContract.sol\";\r\nimport \"./Configurable.sol\";\r\nimport \"../lifecycle/Upgradeable.sol\";\r\ncontract ContractService is Configurable,Upgradeable{\r\n    CustomerContract data;\r\n    bool public inited=false;\r\n\r\n\r\n    modifier whenInited() {\r\n        require(inited);\r\n        _;\r\n    }\r\n\r\n    modifier onlyAdmin() {\r\n        require(config.isAdmin(msg.sender));\r\n        _;\r\n    }\r\n\r\n    //构造函数\r\n    function ContractService( )public{\r\n\r\n    }\r\n\r\n    //签署合约\r\n    function signContract(address firstParty,address secondParty, uint32 shareProfit, uint32 expireYear, uint160 txHash, uint64 timestamp,CustomerContract.ContractState state,string remark) public {\r\n        data.addContract(firstParty, secondParty, shareProfit, expireYear, txHash, timestamp, state,remark);\r\n    }\r\n\r\n    //确认合约\r\n    function confirmContract( uint160 txHash, CustomerContract.ContractState state) public {\r\n        var (firstParty,secondParty,shareProfit,expireYear,_txHash,timestamp,_state,remark)=data.getContractByTxHash(txHash);\r\n        require(tx.origin==secondParty&&_state==CustomerContract.ContractState.CREATED);\r\n        data.updateContract(txHash,state);\r\n    }\r\n\r\n    //获取合同内容列表\r\n    function getContractList(uint128 start,uint128 rows,CustomerContract.ContractState state)public  view  returns (uint160[6][]) {\r\n        uint128 total=data.countContractForPaging(msg.sender,config.isAdmin(msg.sender),state);\r\n        uint160[6][] memory temp = new uint160[6][](rows);\r\n        for (uint i = 0; i <rows; i++) {\r\n            var (firstParty,secondParty,txHash,timestamp,_state,_start)=data.getContractForPaging(msg.sender,start,config.isAdmin(msg.sender),state);\r\n            temp[i] = [uint160(firstParty),uint160(secondParty),txHash,timestamp,uint160(_state),total];\r\n            start=_start;\r\n        }\r\n        return temp;\r\n    }\r\n\r\n    //根据ID交易记录详情\r\n    function getContractDetail(uint160 txHash) public view returns(address,address,uint32,uint32,uint160,uint64,CustomerContract.ContractState,string){\r\n        return data.getContractByTxHash(txHash);\r\n    }\r\n\r\n    function init(address _config){\r\n        config=Config(_config);\r\n        address addr=config.getCurrentVersion(\"CustomerContract\");\r\n        require(addr!=address(0));\r\n        data=CustomerContract(addr);\r\n        inited=true;\r\n    }\r\n\r\n}",
  "sourcePath": "D:\\dapps\\TTVIP\\contracts\\service\\ContractService.sol",
  "compiler": {
    "name": "solc",
    "version": "0.4.23+commit.124ca40d.Emscripten.clang"
  },
  "schemaVersion": "2.0.0",
  "updatedAt": "2018-05-17T06:18:01.335Z"
}