{
  "contractName": "CustomerTransaction",
  "abi": [
    {
      "constant": true,
      "inputs": [
        {
          "name": "",
          "type": "address"
        }
      ],
      "name": "tnounces",
      "outputs": [
        {
          "name": "",
          "type": "uint64"
        }
      ],
      "payable": false,
      "stateMutability": "view",
      "type": "function"
    },
    {
      "constant": true,
      "inputs": [
        {
          "name": "",
          "type": "uint160"
        }
      ],
      "name": "indexs",
      "outputs": [
        {
          "name": "",
          "type": "uint256"
        }
      ],
      "payable": false,
      "stateMutability": "view",
      "type": "function"
    },
    {
      "constant": true,
      "inputs": [
        {
          "name": "",
          "type": "uint256"
        }
      ],
      "name": "transactions",
      "outputs": [
        {
          "name": "txHash",
          "type": "uint160"
        },
        {
          "name": "from",
          "type": "address"
        },
        {
          "name": "to",
          "type": "address"
        },
        {
          "name": "amount",
          "type": "uint128"
        },
        {
          "name": "timestamp",
          "type": "uint64"
        },
        {
          "name": "remark",
          "type": "string"
        }
      ],
      "payable": false,
      "stateMutability": "view",
      "type": "function"
    },
    {
      "constant": false,
      "inputs": [
        {
          "name": "from",
          "type": "address"
        },
        {
          "name": "to",
          "type": "address"
        },
        {
          "name": "amount",
          "type": "uint64"
        },
        {
          "name": "txHash",
          "type": "uint160"
        },
        {
          "name": "timestamp",
          "type": "uint64"
        },
        {
          "name": "remark",
          "type": "string"
        }
      ],
      "name": "addRecord",
      "outputs": [],
      "payable": false,
      "stateMutability": "nonpayable",
      "type": "function"
    },
    {
      "constant": true,
      "inputs": [
        {
          "name": "from",
          "type": "address"
        },
        {
          "name": "to",
          "type": "address"
        },
        {
          "name": "start",
          "type": "uint128"
        },
        {
          "name": "isAdmin",
          "type": "bool"
        }
      ],
      "name": "getTransactionsForPaging",
      "outputs": [
        {
          "name": "",
          "type": "uint160"
        },
        {
          "name": "",
          "type": "address"
        },
        {
          "name": "",
          "type": "address"
        },
        {
          "name": "",
          "type": "uint128"
        },
        {
          "name": "",
          "type": "uint64"
        },
        {
          "name": "",
          "type": "uint128"
        },
        {
          "name": "",
          "type": "uint128"
        }
      ],
      "payable": false,
      "stateMutability": "view",
      "type": "function"
    },
    {
      "constant": true,
      "inputs": [
        {
          "name": "txHash",
          "type": "uint160"
        }
      ],
      "name": "getTransactionByTxHash",
      "outputs": [
        {
          "name": "",
          "type": "uint160"
        },
        {
          "name": "",
          "type": "address"
        },
        {
          "name": "",
          "type": "address"
        },
        {
          "name": "",
          "type": "uint128"
        },
        {
          "name": "",
          "type": "uint64"
        },
        {
          "name": "",
          "type": "string"
        }
      ],
      "payable": false,
      "stateMutability": "view",
      "type": "function"
    },
    {
      "constant": true,
      "inputs": [
        {
          "name": "index",
          "type": "uint256"
        }
      ],
      "name": "getTransactionDetail",
      "outputs": [
        {
          "name": "",
          "type": "uint160"
        },
        {
          "name": "",
          "type": "address"
        },
        {
          "name": "",
          "type": "address"
        },
        {
          "name": "",
          "type": "uint128"
        },
        {
          "name": "",
          "type": "uint64"
        },
        {
          "name": "",
          "type": "string"
        }
      ],
      "payable": false,
      "stateMutability": "view",
      "type": "function"
    }
  ],
  "bytecode": "0x608060405234801561001057600080fd5b5061173a806100206000396000f300608060405260043610610083576000357c0100000000000000000000000000000000000000000000000000000000900463ffffffff16806311434f5f146100885780631f9d762f146100f35780632e0ea718146102c057806365391c20146103175780639ace38c2146104b25780639ff512fa14610637578063ecfa4ba1146107bc575b600080fd5b34801561009457600080fd5b506100c9600480360381019080803573ffffffffffffffffffffffffffffffffffffffff1690602001909291905050506108ad565b604051808267ffffffffffffffff1667ffffffffffffffff16815260200191505060405180910390f35b3480156100ff57600080fd5b5061017c600480360381019080803573ffffffffffffffffffffffffffffffffffffffff169060200190929190803573ffffffffffffffffffffffffffffffffffffffff16906020019092919080356fffffffffffffffffffffffffffffffff1690602001909291908035151590602001909291905050506108d4565b604051808873ffffffffffffffffffffffffffffffffffffffff1673ffffffffffffffffffffffffffffffffffffffff1681526020018773ffffffffffffffffffffffffffffffffffffffff1673ffffffffffffffffffffffffffffffffffffffff1681526020018673ffffffffffffffffffffffffffffffffffffffff1673ffffffffffffffffffffffffffffffffffffffff168152602001856fffffffffffffffffffffffffffffffff166fffffffffffffffffffffffffffffffff1681526020018467ffffffffffffffff1667ffffffffffffffff168152602001836fffffffffffffffffffffffffffffffff166fffffffffffffffffffffffffffffffff168152602001826fffffffffffffffffffffffffffffffff166fffffffffffffffffffffffffffffffff16815260200197505050505050505060405180910390f35b3480156102cc57600080fd5b50610301600480360381019080803573ffffffffffffffffffffffffffffffffffffffff169060200190929190505050610dc4565b6040518082815260200191505060405180910390f35b34801561032357600080fd5b50610358600480360381019080803573ffffffffffffffffffffffffffffffffffffffff169060200190929190505050610ddc565b604051808773ffffffffffffffffffffffffffffffffffffffff1673ffffffffffffffffffffffffffffffffffffffff1681526020018673ffffffffffffffffffffffffffffffffffffffff1673ffffffffffffffffffffffffffffffffffffffff1681526020018573ffffffffffffffffffffffffffffffffffffffff1673ffffffffffffffffffffffffffffffffffffffff168152602001846fffffffffffffffffffffffffffffffff166fffffffffffffffffffffffffffffffff1681526020018367ffffffffffffffff1667ffffffffffffffff16815260200180602001828103825283818151815260200191508051906020019080838360005b83811015610472578082015181840152602081019050610457565b50505050905090810190601f16801561049f5780820380516001836020036101000a031916815260200191505b5097505050505050505060405180910390f35b3480156104be57600080fd5b506104dd60048036038101908080359060200190929190505050610e49565b604051808773ffffffffffffffffffffffffffffffffffffffff1673ffffffffffffffffffffffffffffffffffffffff1681526020018673ffffffffffffffffffffffffffffffffffffffff1673ffffffffffffffffffffffffffffffffffffffff1681526020018573ffffffffffffffffffffffffffffffffffffffff1673ffffffffffffffffffffffffffffffffffffffff168152602001846fffffffffffffffffffffffffffffffff166fffffffffffffffffffffffffffffffff1681526020018367ffffffffffffffff1667ffffffffffffffff16815260200180602001828103825283818151815260200191508051906020019080838360005b838110156105f75780820151818401526020810190506105dc565b50505050905090810190601f1680156106245780820380516001836020036101000a031916815260200191505b5097505050505050505060405180910390f35b34801561064357600080fd5b5061066260048036038101908080359060200190929190505050610fbc565b604051808773ffffffffffffffffffffffffffffffffffffffff1673ffffffffffffffffffffffffffffffffffffffff1681526020018673ffffffffffffffffffffffffffffffffffffffff1673ffffffffffffffffffffffffffffffffffffffff1681526020018573ffffffffffffffffffffffffffffffffffffffff1673ffffffffffffffffffffffffffffffffffffffff168152602001846fffffffffffffffffffffffffffffffff166fffffffffffffffffffffffffffffffff1681526020018367ffffffffffffffff1667ffffffffffffffff16815260200180602001828103825283818151815260200191508051906020019080838360005b8381101561077c578082015181840152602081019050610761565b50505050905090810190601f1680156107a95780820380516001836020036101000a031916815260200191505b5097505050505050505060405180910390f35b3480156107c857600080fd5b506108ab600480360381019080803573ffffffffffffffffffffffffffffffffffffffff169060200190929190803573ffffffffffffffffffffffffffffffffffffffff169060200190929190803567ffffffffffffffff169060200190929190803573ffffffffffffffffffffffffffffffffffffffff169060200190929190803567ffffffffffffffff169060200190929190803590602001908201803590602001908080601f0160208091040260200160405190810160405280939291908181526020018383808284378201915050505050509192919290505050611250565b005b60016020528060005260406000206000915054906101000a900467ffffffffffffffff1681565b6000806000806000806000806108e86115d4565b8961095057600160008e73ffffffffffffffffffffffffffffffffffffffff1673ffffffffffffffffffffffffffffffffffffffff16815260200190815260200160002060009054906101000a900467ffffffffffffffff1667ffffffffffffffff16610957565b6000805490505b91505b816fffffffffffffffffffffffffffffffff168b6fffffffffffffffffffffffffffffffff161015610db35760008b6fffffffffffffffffffffffffffffffff168154811015156109a757fe5b906000526020600020906005020160c060405190810160405290816000820160009054906101000a900473ffffffffffffffffffffffffffffffffffffffff1673ffffffffffffffffffffffffffffffffffffffff1673ffffffffffffffffffffffffffffffffffffffff1681526020016001820160009054906101000a900473ffffffffffffffffffffffffffffffffffffffff1673ffffffffffffffffffffffffffffffffffffffff1673ffffffffffffffffffffffffffffffffffffffff1681526020016002820160009054906101000a900473ffffffffffffffffffffffffffffffffffffffff1673ffffffffffffffffffffffffffffffffffffffff1673ffffffffffffffffffffffffffffffffffffffff1681526020016003820160009054906101000a90046fffffffffffffffffffffffffffffffff166fffffffffffffffffffffffffffffffff166fffffffffffffffffffffffffffffffff1681526020016003820160109054906101000a900467ffffffffffffffff1667ffffffffffffffff1667ffffffffffffffff168152602001600482018054600181600116156101000203166002900480601f016020809104026020016040519081016040528092919081815260200182805460018160011615610100020316600290048015610bd85780601f10610bad57610100808354040283529160200191610bd8565b820191906000526020600020905b815481529060010190602001808311610bbb57829003601f168201915b50505050508152505090508915610c8e57600073ffffffffffffffffffffffffffffffffffffffff168c73ffffffffffffffffffffffffffffffffffffffff1614158015610c5657508b73ffffffffffffffffffffffffffffffffffffffff16816040015173ffffffffffffffffffffffffffffffffffffffff1614155b15610c6057610da6565b806000015181602001518260400151836060015184608001518f879850985098509850985098509850610db4565b8c73ffffffffffffffffffffffffffffffffffffffff16816020015173ffffffffffffffffffffffffffffffffffffffff161480610cfb57508c73ffffffffffffffffffffffffffffffffffffffff16816040015173ffffffffffffffffffffffffffffffffffffffff16145b15610da557600073ffffffffffffffffffffffffffffffffffffffff168c73ffffffffffffffffffffffffffffffffffffffff1614158015610d6d57508b73ffffffffffffffffffffffffffffffffffffffff16816040015173ffffffffffffffffffffffffffffffffffffffff1614155b15610d7757610da6565b806000015181602001518260400151836060015184608001518f879850985098509850985098509850610db4565b5b8a806001019b505061095a565b5b5050949950949992975094509450565b60026020528060005260406000206000915090505481565b600080600080600060606000600260008973ffffffffffffffffffffffffffffffffffffffff1673ffffffffffffffffffffffffffffffffffffffff168152602001908152602001600020549050610e3381610fbc565b9650965096509650965096505091939550919395565b600081815481101515610e5857fe5b90600052602060002090600502016000915090508060000160009054906101000a900473ffffffffffffffffffffffffffffffffffffffff16908060010160009054906101000a900473ffffffffffffffffffffffffffffffffffffffff16908060020160009054906101000a900473ffffffffffffffffffffffffffffffffffffffff16908060030160009054906101000a90046fffffffffffffffffffffffffffffffff16908060030160109054906101000a900467ffffffffffffffff1690806004018054600181600116156101000203166002900480601f016020809104026020016040519081016040528092919081815260200182805460018160011615610100020316600290048015610fb25780601f10610f8757610100808354040283529160200191610fb2565b820191906000526020600020905b815481529060010190602001808311610f9557829003601f168201915b5050505050905086565b60008060008060006060610fce6115d4565b600088815481101515610fdd57fe5b906000526020600020906005020160c060405190810160405290816000820160009054906101000a900473ffffffffffffffffffffffffffffffffffffffff1673ffffffffffffffffffffffffffffffffffffffff1673ffffffffffffffffffffffffffffffffffffffff1681526020016001820160009054906101000a900473ffffffffffffffffffffffffffffffffffffffff1673ffffffffffffffffffffffffffffffffffffffff1673ffffffffffffffffffffffffffffffffffffffff1681526020016002820160009054906101000a900473ffffffffffffffffffffffffffffffffffffffff1673ffffffffffffffffffffffffffffffffffffffff1673ffffffffffffffffffffffffffffffffffffffff1681526020016003820160009054906101000a90046fffffffffffffffffffffffffffffffff166fffffffffffffffffffffffffffffffff166fffffffffffffffffffffffffffffffff1681526020016003820160109054906101000a900467ffffffffffffffff1667ffffffffffffffff1667ffffffffffffffff168152602001600482018054600181600116156101000203166002900480601f01602080910402602001604051908101604052809291908181526020018280546001816001161561010002031660029004801561120e5780601f106111e35761010080835404028352916020019161120e565b820191906000526020600020905b8154815290600101906020018083116111f157829003601f168201915b5050505050815250509050806000015181602001518260400151836060015184608001518560a001518090509650965096509650965096505091939550919395565b60008080549050905080600260008673ffffffffffffffffffffffffffffffffffffffff1673ffffffffffffffffffffffffffffffffffffffff16815260200190815260200160002081905550600060c0604051908101604052808673ffffffffffffffffffffffffffffffffffffffff1681526020018973ffffffffffffffffffffffffffffffffffffffff1681526020018873ffffffffffffffffffffffffffffffffffffffff1681526020018767ffffffffffffffff166fffffffffffffffffffffffffffffffff1681526020018567ffffffffffffffff168152602001848152509080600181540180825580915050906001820390600052602060002090600502016000909192909190915060008201518160000160006101000a81548173ffffffffffffffffffffffffffffffffffffffff021916908373ffffffffffffffffffffffffffffffffffffffff16021790555060208201518160010160006101000a81548173ffffffffffffffffffffffffffffffffffffffff021916908373ffffffffffffffffffffffffffffffffffffffff16021790555060408201518160020160006101000a81548173ffffffffffffffffffffffffffffffffffffffff021916908373ffffffffffffffffffffffffffffffffffffffff16021790555060608201518160030160006101000a8154816fffffffffffffffffffffffffffffffff02191690836fffffffffffffffffffffffffffffffff16021790555060808201518160030160106101000a81548167ffffffffffffffff021916908367ffffffffffffffff16021790555060a08201518160040190805190602001906114bf929190611669565b50505050600160008873ffffffffffffffffffffffffffffffffffffffff1673ffffffffffffffffffffffffffffffffffffffff168152602001908152602001600020600081819054906101000a900467ffffffffffffffff168092919060010191906101000a81548167ffffffffffffffff021916908367ffffffffffffffff16021790555050600160008773ffffffffffffffffffffffffffffffffffffffff1673ffffffffffffffffffffffffffffffffffffffff168152602001908152602001600020600081819054906101000a900467ffffffffffffffff168092919060010191906101000a81548167ffffffffffffffff021916908367ffffffffffffffff1602179055505050505050505050565b60c060405190810160405280600073ffffffffffffffffffffffffffffffffffffffff168152602001600073ffffffffffffffffffffffffffffffffffffffff168152602001600073ffffffffffffffffffffffffffffffffffffffff16815260200160006fffffffffffffffffffffffffffffffff168152602001600067ffffffffffffffff168152602001606081525090565b828054600181600116156101000203166002900490600052602060002090601f016020900481019282601f106116aa57805160ff19168380011785556116d8565b828001600101855582156116d8579182015b828111156116d75782518255916020019190600101906116bc565b5b5090506116e591906116e9565b5090565b61170b91905b808211156117075760008160009055506001016116ef565b5090565b905600a165627a7a72305820fb02856db92581c0de46c3de4f5e85face3d9078a0073de1b3a55704c0db454a0029",
  "source": "pragma solidity ^0.4.2;\r\n\r\n\r\ncontract CustomerTransaction {\r\n    //交易记录\r\n    struct Transaction {\r\n    uint160 txHash;           //交易ID\r\n    address from;             //发起人地址\r\n    address to;               //接收方地址\r\n    uint128 amount;           //交易金额\r\n    uint64 timestamp;        //交易时间\r\n    string remark;           //备注\r\n    }\r\n\r\n    //交易记录\r\n    Transaction[] public transactions;\r\n\r\n    //交易序号\r\n    mapping (address => uint64) public tnounces;\r\n\r\n    //数据索引\r\n    mapping (uint160 => uint) public indexs;\r\n\r\n    //记录交易内容\r\n    function addRecord(address from, address to, uint64 amount, uint160 txHash, uint64 timestamp, string remark){\r\n        uint index = transactions.length;\r\n        indexs[txHash] = index;\r\n        transactions.push(Transaction(txHash, from, to, amount, timestamp, remark));\r\n        tnounces[from]++;\r\n        tnounces[to]++;\r\n    }\r\n\r\n    //按分页获取合同内容\r\n    function getTransactionsForPaging(address from, address to,uint128 start,bool isAdmin)public view  returns (uint160,address,address,uint128,uint64,uint128,uint128) {\r\n        uint128 total = uint128((isAdmin? transactions.length : tnounces[from]));\r\n        for (; start < total; start++) {\r\n            Transaction memory t = transactions[start];\r\n            if (isAdmin) {\r\n                if (to != address(0) && t.to != to) {\r\n                    continue;\r\n                }\r\n                return (t.txHash,t.from,t.to,t.amount,t.timestamp,start,total);\r\n            }\r\n            else {\r\n                if (t.from == from || t.to == from) {\r\n                    if (to != address(0) && t.to != to) {\r\n                        continue;\r\n                    }\r\n                    return (t.txHash,t.from,t.to,t.amount,t.timestamp,start,total);\r\n                }\r\n            }\r\n        }\r\n    }\r\n\r\n    //根据ID查询交易记录详情\r\n    function getTransactionByTxHash(uint160 txHash) public view returns (uint160, address, address, uint128, uint64, string){\r\n        //校验数据是否存在\r\n        uint index = indexs[txHash];\r\n        return getTransactionDetail(index);\r\n    }\r\n\r\n    function getTransactionDetail(uint index) public view returns (uint160, address, address, uint128, uint64, string){\r\n        Transaction memory t = transactions[index];\r\n        return(t.txHash,t.from, t.to, t.amount, t.timestamp, t.remark);\r\n    }\r\n\r\n}\r\n",
  "sourcePath": "D:\\dapps\\TTVIP\\contracts\\data\\CustomerTransaction.sol",
  "compiler": {
    "name": "solc",
    "version": "0.4.23+commit.124ca40d.Emscripten.clang"
  },
  "schemaVersion": "2.0.0",
  "updatedAt": "2018-05-17T06:17:56.819Z"
}