{
  "contractName": "CustomerAccount",
  "abi": [
    {
      "constant": true,
      "inputs": [
        {
          "name": "",
          "type": "address"
        }
      ],
      "name": "accounts",
      "outputs": [
        {
          "name": "userAddr",
          "type": "address"
        },
        {
          "name": "userId",
          "type": "uint128"
        },
        {
          "name": "userName",
          "type": "string"
        },
        {
          "name": "status",
          "type": "uint32"
        },
        {
          "name": "balance",
          "type": "uint128"
        }
      ],
      "payable": false,
      "stateMutability": "view",
      "type": "function"
    },
    {
      "constant": true,
      "inputs": [
        {
          "name": "addr",
          "type": "address"
        }
      ],
      "name": "getAccount",
      "outputs": [
        {
          "name": "",
          "type": "address"
        },
        {
          "name": "",
          "type": "uint128"
        },
        {
          "name": "",
          "type": "string"
        },
        {
          "name": "",
          "type": "uint32"
        },
        {
          "name": "",
          "type": "uint128"
        }
      ],
      "payable": false,
      "stateMutability": "view",
      "type": "function"
    },
    {
      "constant": false,
      "inputs": [
        {
          "name": "userId",
          "type": "uint128"
        },
        {
          "name": "userName",
          "type": "string"
        },
        {
          "name": "balance",
          "type": "uint64"
        }
      ],
      "name": "register",
      "outputs": [],
      "payable": false,
      "stateMutability": "nonpayable",
      "type": "function"
    },
    {
      "constant": false,
      "inputs": [
        {
          "name": "addr",
          "type": "address"
        },
        {
          "name": "amount",
          "type": "uint128"
        }
      ],
      "name": "updateBalance",
      "outputs": [],
      "payable": false,
      "stateMutability": "nonpayable",
      "type": "function"
    },
    {
      "constant": true,
      "inputs": [
        {
          "name": "addr",
          "type": "address"
        }
      ],
      "name": "getBalance",
      "outputs": [
        {
          "name": "",
          "type": "uint128"
        }
      ],
      "payable": false,
      "stateMutability": "view",
      "type": "function"
    },
    {
      "constant": true,
      "inputs": [],
      "name": "getAccountList",
      "outputs": [
        {
          "name": "",
          "type": "bytes20[]"
        },
        {
          "name": "",
          "type": "string[]"
        }
      ],
      "payable": false,
      "stateMutability": "view",
      "type": "function"
    }
  ],
  "bytecode": "0x608060405234801561001057600080fd5b5061144b806100206000396000f300608060405260043610610078576000357c0100000000000000000000000000000000000000000000000000000000900463ffffffff1680632843314e1461007d5780635e5c06e2146100a95780637907f13d146100ea578063c4e552a414610113578063f8b2cb4f1461013c578063fbcbc0f114610179575b600080fd5b34801561008957600080fd5b506100926101ba565b6040516100a09291906111eb565b60405180910390f35b3480156100b557600080fd5b506100d060048036036100cb9190810190610efa565b610475565b6040516100e1959493929190611191565b60405180910390f35b3480156100f657600080fd5b50610111600480360361010c9190810190610f23565b6105ab565b005b34801561011f57600080fd5b5061013a60048036036101359190810190610f5f565b610648565b005b34801561014857600080fd5b50610163600480360361015e9190810190610efa565b610aae565b6040516101709190611222565b60405180910390f35b34801561018557600080fd5b506101a0600480360361019b9190810190610efa565b610b15565b6040516101b1959493929190611137565b60405180910390f35b60608060608060006001805490506040519080825280602002602001820160405280156101f65781602001602082028038833980820191505090505b50925060018054905060405190808252806020026020018201604052801561023257816020015b606081526020019060019003908161021d5790505b509150600090505b6001805490508110156104685760008060018381548110151561025957fe5b9060005260206000200160009054906101000a900473ffffffffffffffffffffffffffffffffffffffff1673ffffffffffffffffffffffffffffffffffffffff1673ffffffffffffffffffffffffffffffffffffffff16815260200190815260200160002060000160009054906101000a900473ffffffffffffffffffffffffffffffffffffffff166c010000000000000000000000000283828151811015156102ff57fe5b906020019060200201906bffffffffffffffffffffffff191690816bffffffffffffffffffffffff19168152505060008060018381548110151561033f57fe5b9060005260206000200160009054906101000a900473ffffffffffffffffffffffffffffffffffffffff1673ffffffffffffffffffffffffffffffffffffffff1673ffffffffffffffffffffffffffffffffffffffff1681526020019081526020016000206002018054600181600116156101000203166002900480601f01602080910402602001604051908101604052809291908181526020018280546001816001161561010002031660029004801561043b5780601f106104105761010080835404028352916020019161043b565b820191906000526020600020905b81548152906001019060200180831161041e57829003601f168201915b5050505050828281518110151561044e57fe5b90602001906020020181905250808060010191505061023a565b8282945094505050509091565b60006020528060005260406000206000915090508060000160009054906101000a900473ffffffffffffffffffffffffffffffffffffffff16908060010160009054906101000a90046fffffffffffffffffffffffffffffffff1690806002018054600181600116156101000203166002900480601f0160208091040260200160405190810160405280929190818152602001828054600181600116156101000203166002900480156105695780601f1061053e57610100808354040283529160200191610569565b820191906000526020600020905b81548152906001019060200180831161054c57829003601f168201915b5050505050908060030160009054906101000a900463ffffffff16908060030160049054906101000a90046fffffffffffffffffffffffffffffffff16905085565b806000808473ffffffffffffffffffffffffffffffffffffffff1673ffffffffffffffffffffffffffffffffffffffff16815260200190815260200160002060030160048282829054906101000a90046fffffffffffffffffffffffffffffffff160192506101000a8154816fffffffffffffffffffffffffffffffff02191690836fffffffffffffffffffffffffffffffff1602179055505050565b6000610652610d53565b61065a610d53565b3292506000808473ffffffffffffffffffffffffffffffffffffffff1673ffffffffffffffffffffffffffffffffffffffff16815260200190815260200160002060a060405190810160405290816000820160009054906101000a900473ffffffffffffffffffffffffffffffffffffffff1673ffffffffffffffffffffffffffffffffffffffff1673ffffffffffffffffffffffffffffffffffffffff1681526020016001820160009054906101000a90046fffffffffffffffffffffffffffffffff166fffffffffffffffffffffffffffffffff166fffffffffffffffffffffffffffffffff168152602001600282018054600181600116156101000203166002900480601f0160208091040260200160405190810160405280929190818152602001828054600181600116156101000203166002900480156107e05780601f106107b5576101008083540402835291602001916107e0565b820191906000526020600020905b8154815290600101906020018083116107c357829003601f168201915b505050505081526020016003820160009054906101000a900463ffffffff1663ffffffff1663ffffffff1681526020016003820160049054906101000a90046fffffffffffffffffffffffffffffffff166fffffffffffffffffffffffffffffffff166fffffffffffffffffffffffffffffffff16815250509150600082602001516fffffffffffffffffffffffffffffffff1614151561088057600080fd5b60a0604051908101604052808473ffffffffffffffffffffffffffffffffffffffff168152602001876fffffffffffffffffffffffffffffffff168152602001868152602001600163ffffffff1681526020018567ffffffffffffffff166fffffffffffffffffffffffffffffffff168152509050806000808573ffffffffffffffffffffffffffffffffffffffff1673ffffffffffffffffffffffffffffffffffffffff16815260200190815260200160002060008201518160000160006101000a81548173ffffffffffffffffffffffffffffffffffffffff021916908373ffffffffffffffffffffffffffffffffffffffff16021790555060208201518160010160006101000a8154816fffffffffffffffffffffffffffffffff02191690836fffffffffffffffffffffffffffffffff16021790555060408201518160020190805190602001906109d6929190610dc3565b5060608201518160030160006101000a81548163ffffffff021916908363ffffffff16021790555060808201518160030160046101000a8154816fffffffffffffffffffffffffffffffff02191690836fffffffffffffffffffffffffffffffff16021790555090505060018390806001815401808255809150509060018203906000526020600020016000909192909190916101000a81548173ffffffffffffffffffffffffffffffffffffffff021916908373ffffffffffffffffffffffffffffffffffffffff16021790555050505050505050565b60008060008373ffffffffffffffffffffffffffffffffffffffff1673ffffffffffffffffffffffffffffffffffffffff16815260200190815260200160002060030160049054906101000a90046fffffffffffffffffffffffffffffffff169050919050565b6000806060600080610b25610d53565b6000808873ffffffffffffffffffffffffffffffffffffffff1673ffffffffffffffffffffffffffffffffffffffff16815260200190815260200160002060a060405190810160405290816000820160009054906101000a900473ffffffffffffffffffffffffffffffffffffffff1673ffffffffffffffffffffffffffffffffffffffff1673ffffffffffffffffffffffffffffffffffffffff1681526020016001820160009054906101000a90046fffffffffffffffffffffffffffffffff166fffffffffffffffffffffffffffffffff166fffffffffffffffffffffffffffffffff168152602001600282018054600181600116156101000203166002900480601f016020809104026020016040519081016040528092919081815260200182805460018160011615610100020316600290048015610ca85780601f10610c7d57610100808354040283529160200191610ca8565b820191906000526020600020905b815481529060010190602001808311610c8b57829003601f168201915b505050505081526020016003820160009054906101000a900463ffffffff1663ffffffff1663ffffffff1681526020016003820160049054906101000a90046fffffffffffffffffffffffffffffffff166fffffffffffffffffffffffffffffffff166fffffffffffffffffffffffffffffffff1681525050905080600001518160200151826040015183606001518460800151829250955095509550955095505091939590929450565b60a060405190810160405280600073ffffffffffffffffffffffffffffffffffffffff16815260200160006fffffffffffffffffffffffffffffffff16815260200160608152602001600063ffffffff16815260200160006fffffffffffffffffffffffffffffffff1681525090565b828054600181600116156101000203166002900490600052602060002090601f016020900481019282601f10610e0457805160ff1916838001178555610e32565b82800160010185558215610e32579182015b82811115610e31578251825591602001919060010190610e16565b5b509050610e3f9190610e43565b5090565b610e6591905b80821115610e61576000816000905550600101610e49565b5090565b90565b6000610e74823561136e565b905092915050565b600082601f8301121515610e8f57600080fd5b8135610ea2610e9d8261126a565b61123d565b91508082526020830160208301858383011115610ebe57600080fd5b610ec98382846113be565b50505092915050565b6000610ede823561138e565b905092915050565b6000610ef282356113aa565b905092915050565b600060208284031215610f0c57600080fd5b6000610f1a84828501610e68565b91505092915050565b60008060408385031215610f3657600080fd5b6000610f4485828601610e68565b9250506020610f5585828601610ed2565b9150509250929050565b600080600060608486031215610f7457600080fd5b6000610f8286828701610ed2565b935050602084013567ffffffffffffffff811115610f9f57600080fd5b610fab86828701610e7c565b9250506040610fbc86828701610ee6565b9150509250925092565b610fcf816112f6565b82525050565b6000610fe0826112b0565b808452602084019350610ff283611296565b60005b828110156110245761100886835161109e565b611011826112dc565b9150602086019550600181019050610ff5565b50849250505092915050565b600061103b826112bb565b80845260208401935083602082028501611054856112a3565b60005b8481101561108d57838303885261106f8383516110e3565b925061107a826112e9565b9150602088019750600181019050611057565b508196508694505050505092915050565b6110a781611316565b82525050565b60006110b8826112d1565b8084526110cc8160208601602086016113cd565b6110d581611400565b602085010191505092915050565b60006110ee826112c6565b8084526111028160208601602086016113cd565b61110b81611400565b602085010191505092915050565b61112281611342565b82525050565b6111318161135e565b82525050565b600060a08201905061114c6000830188610fc6565b6111596020830187611119565b818103604083015261116b81866110ad565b905061117a6060830185611128565b6111876080830184611119565b9695505050505050565b600060a0820190506111a66000830188610fc6565b6111b36020830187611119565b81810360408301526111c581866110e3565b90506111d46060830185611128565b6111e16080830184611119565b9695505050505050565b600060408201905081810360008301526112058185610fd5565b905081810360208301526112198184611030565b90509392505050565b60006020820190506112376000830184611119565b92915050565b6000604051905081810181811067ffffffffffffffff8211171561126057600080fd5b8060405250919050565b600067ffffffffffffffff82111561128157600080fd5b601f19601f8301169050602081019050919050565b6000602082019050919050565b6000602082019050919050565b600081519050919050565b600081519050919050565b600081519050919050565b600081519050919050565b6000602082019050919050565b6000602082019050919050565b600073ffffffffffffffffffffffffffffffffffffffff82169050919050565b60007fffffffffffffffffffffffffffffffffffffffff00000000000000000000000082169050919050565b60006fffffffffffffffffffffffffffffffff82169050919050565b600063ffffffff82169050919050565b600073ffffffffffffffffffffffffffffffffffffffff82169050919050565b60006fffffffffffffffffffffffffffffffff82169050919050565b600067ffffffffffffffff82169050919050565b82818337600083830152505050565b60005b838110156113eb5780820151818401526020810190506113d0565b838111156113fa576000848401525b50505050565b6000601f19601f83011690509190505600a265627a7a72305820134056e29675b5882fa263b7f5820dfeffac62da5cb97bd8901cff14315586fb6c6578706572696d656e74616cf50037",
  "source": "pragma solidity ^0.4.2;\r\npragma experimental ABIEncoderV2;\r\n\r\ncontract CustomerAccount {\r\n\r\n    //用户资金账户\r\n    struct Account {\r\n    address userAddr;\r\n    uint128 userId;         //用户ID\r\n    string userName;        //用户名字\r\n    uint32 status;          //账户状态  1正常，0禁用\r\n    uint128 balance;         //余额  精确至分 换算成元  balance/100;\r\n    }\r\n\r\n    //资金账户数据\r\n    mapping (address => Account) public  accounts;\r\n    address[] account_keys;\r\n\r\n    function getAccount(address addr) public  view  returns(address,uint128,string,uint32,uint128){\r\n        Account memory acc= accounts[addr];\r\n        return (acc.userAddr,acc.userId,acc.userName,acc.status,acc.balance);\r\n    }\r\n\r\n    function register(uint128 userId,string userName,uint64 balance){\r\n        //注意各种校验\r\n        address user_addr=tx.origin;\r\n        Account memory acc=accounts[user_addr];\r\n        require(acc.userId==0);\r\n        Account memory newAcc=Account(user_addr,userId,userName,1,balance);\r\n        accounts[user_addr]=newAcc;\r\n        account_keys.push(user_addr);\r\n    }\r\n\r\n    function updateBalance(address addr,uint128 amount){\r\n        //\r\n        accounts[addr].balance+=amount;\r\n    }\r\n\r\n    function getBalance(address addr)public  view  returns(uint128){\r\n        return accounts[addr].balance;\r\n    }\r\n    //将地址、用户名转换成bytes20\r\n    function getAccountList()public  view  returns(bytes20[],string[]){\r\n        bytes20[] memory addrs = new bytes20[](account_keys.length);\r\n        string[] memory names = new string[](account_keys.length);\r\n        for (uint i = 0; i <account_keys.length; i++) {\r\n            addrs[i] =bytes20(accounts[account_keys[i]].userAddr);\r\n            names[i]=accounts[account_keys[i]].userName;\r\n        }\r\n        return (addrs,names);\r\n    }\r\n\r\n}",
  "sourcePath": "D:\\dapps\\TTVIP\\contracts\\data\\CustomerAccount.sol",
  "compiler": {
    "name": "solc",
    "version": "0.4.23+commit.124ca40d.Emscripten.clang"
  },
  "schemaVersion": "2.0.0",
  "updatedAt": "2018-05-17T06:17:56.814Z"
}