{
  "contractName": "CustomerContract",
  "abi": [
    {
      "constant": true,
      "inputs": [
        {
          "name": "",
          "type": "uint160"
        }
      ],
      "name": "indexs",
      "outputs": [
        {
          "name": "",
          "type": "uint256"
        }
      ],
      "payable": false,
      "stateMutability": "view",
      "type": "function"
    },
    {
      "constant": true,
      "inputs": [
        {
          "name": "",
          "type": "uint256"
        }
      ],
      "name": "contracts",
      "outputs": [
        {
          "name": "firstParty",
          "type": "address"
        },
        {
          "name": "secondParty",
          "type": "address"
        },
        {
          "name": "shareProfit",
          "type": "uint32"
        },
        {
          "name": "expireYear",
          "type": "uint32"
        },
        {
          "name": "txHash",
          "type": "uint160"
        },
        {
          "name": "timestamp",
          "type": "uint64"
        },
        {
          "name": "state",
          "type": "uint8"
        },
        {
          "name": "remark",
          "type": "string"
        }
      ],
      "payable": false,
      "stateMutability": "view",
      "type": "function"
    },
    {
      "constant": true,
      "inputs": [
        {
          "name": "",
          "type": "address"
        }
      ],
      "name": "cnounces",
      "outputs": [
        {
          "name": "",
          "type": "uint64"
        }
      ],
      "payable": false,
      "stateMutability": "view",
      "type": "function"
    },
    {
      "constant": false,
      "inputs": [
        {
          "name": "firstParty",
          "type": "address"
        },
        {
          "name": "secondParty",
          "type": "address"
        },
        {
          "name": "shareProfit",
          "type": "uint32"
        },
        {
          "name": "expireYear",
          "type": "uint32"
        },
        {
          "name": "txHash",
          "type": "uint160"
        },
        {
          "name": "timestamp",
          "type": "uint64"
        },
        {
          "name": "state",
          "type": "uint8"
        },
        {
          "name": "remark",
          "type": "string"
        }
      ],
      "name": "addContract",
      "outputs": [],
      "payable": false,
      "stateMutability": "nonpayable",
      "type": "function"
    },
    {
      "constant": false,
      "inputs": [
        {
          "name": "txHash",
          "type": "uint160"
        },
        {
          "name": "state",
          "type": "uint8"
        }
      ],
      "name": "updateContract",
      "outputs": [],
      "payable": false,
      "stateMutability": "nonpayable",
      "type": "function"
    },
    {
      "constant": true,
      "inputs": [
        {
          "name": "useraddress",
          "type": "address"
        },
        {
          "name": "start",
          "type": "uint128"
        },
        {
          "name": "isAdmin",
          "type": "bool"
        },
        {
          "name": "state",
          "type": "uint8"
        }
      ],
      "name": "getContractForPaging",
      "outputs": [
        {
          "name": "",
          "type": "address"
        },
        {
          "name": "",
          "type": "address"
        },
        {
          "name": "",
          "type": "uint160"
        },
        {
          "name": "",
          "type": "uint64"
        },
        {
          "name": "",
          "type": "uint32"
        },
        {
          "name": "",
          "type": "uint128"
        }
      ],
      "payable": false,
      "stateMutability": "view",
      "type": "function"
    },
    {
      "constant": true,
      "inputs": [
        {
          "name": "useraddress",
          "type": "address"
        },
        {
          "name": "isAdmin",
          "type": "bool"
        },
        {
          "name": "state",
          "type": "uint8"
        }
      ],
      "name": "countContractForPaging",
      "outputs": [
        {
          "name": "",
          "type": "uint128"
        }
      ],
      "payable": false,
      "stateMutability": "view",
      "type": "function"
    },
    {
      "constant": true,
      "inputs": [
        {
          "name": "txHash",
          "type": "uint160"
        }
      ],
      "name": "getContractByTxHash",
      "outputs": [
        {
          "name": "",
          "type": "address"
        },
        {
          "name": "",
          "type": "address"
        },
        {
          "name": "",
          "type": "uint32"
        },
        {
          "name": "",
          "type": "uint32"
        },
        {
          "name": "",
          "type": "uint160"
        },
        {
          "name": "",
          "type": "uint64"
        },
        {
          "name": "",
          "type": "uint8"
        },
        {
          "name": "",
          "type": "string"
        }
      ],
      "payable": false,
      "stateMutability": "view",
      "type": "function"
    },
    {
      "constant": true,
      "inputs": [
        {
          "name": "index",
          "type": "uint256"
        }
      ],
      "name": "getContractDetail",
      "outputs": [
        {
          "name": "",
          "type": "address"
        },
        {
          "name": "",
          "type": "address"
        },
        {
          "name": "",
          "type": "uint32"
        },
        {
          "name": "",
          "type": "uint32"
        },
        {
          "name": "",
          "type": "uint160"
        },
        {
          "name": "",
          "type": "uint64"
        },
        {
          "name": "",
          "type": "uint8"
        },
        {
          "name": "",
          "type": "string"
        }
      ],
      "payable": false,
      "stateMutability": "view",
      "type": "function"
    }
  ],
  "bytecode": "0x608060405234801561001057600080fd5b50611acd806100206000396000f300608060405260043610610099576000357c0100000000000000000000000000000000000000000000000000000000900463ffffffff168063016a85981461009e57806317e5f250146102155780632e0ea718146103c0578063474da79a146104175780635019fa4f146105ac5780637bca105614610741578063a8eae478146107d5578063c7879bfa146108df578063e0af172d1461094a575b600080fd5b3480156100aa57600080fd5b50610114600480360381019080803573ffffffffffffffffffffffffffffffffffffffff16906020019092919080356fffffffffffffffffffffffffffffffff169060200190929190803515159060200190929190803560ff16906020019092919050505061099a565b604051808773ffffffffffffffffffffffffffffffffffffffff1673ffffffffffffffffffffffffffffffffffffffff1681526020018673ffffffffffffffffffffffffffffffffffffffff1673ffffffffffffffffffffffffffffffffffffffff1681526020018573ffffffffffffffffffffffffffffffffffffffff1673ffffffffffffffffffffffffffffffffffffffff1681526020018467ffffffffffffffff1667ffffffffffffffff1681526020018363ffffffff1663ffffffff168152602001826fffffffffffffffffffffffffffffffff166fffffffffffffffffffffffffffffffff168152602001965050505050505060405180910390f35b34801561022157600080fd5b50610256600480360381019080803573ffffffffffffffffffffffffffffffffffffffff169060200190929190505050610f60565b604051808973ffffffffffffffffffffffffffffffffffffffff1673ffffffffffffffffffffffffffffffffffffffff1681526020018873ffffffffffffffffffffffffffffffffffffffff1673ffffffffffffffffffffffffffffffffffffffff1681526020018763ffffffff1663ffffffff1681526020018663ffffffff1663ffffffff1681526020018573ffffffffffffffffffffffffffffffffffffffff1673ffffffffffffffffffffffffffffffffffffffff1681526020018467ffffffffffffffff1667ffffffffffffffff16815260200183600481111561033a57fe5b60ff16815260200180602001828103825283818151815260200191508051906020019080838360005b8381101561037e578082015181840152602081019050610363565b50505050905090810190601f1680156103ab5780820380516001836020036101000a031916815260200191505b50995050505050505050505060405180910390f35b3480156103cc57600080fd5b50610401600480360381019080803573ffffffffffffffffffffffffffffffffffffffff169060200190929190505050610fd6565b6040518082815260200191505060405180910390f35b34801561042357600080fd5b5061044260048036038101908080359060200190929190505050610fee565b604051808973ffffffffffffffffffffffffffffffffffffffff1673ffffffffffffffffffffffffffffffffffffffff1681526020018873ffffffffffffffffffffffffffffffffffffffff1673ffffffffffffffffffffffffffffffffffffffff1681526020018763ffffffff1663ffffffff1681526020018663ffffffff1663ffffffff1681526020018573ffffffffffffffffffffffffffffffffffffffff1673ffffffffffffffffffffffffffffffffffffffff1681526020018467ffffffffffffffff1667ffffffffffffffff16815260200183600481111561052657fe5b60ff16815260200180602001828103825283818151815260200191508051906020019080838360005b8381101561056a57808201518184015260208101905061054f565b50505050905090810190601f1680156105975780820380516001836020036101000a031916815260200191505b50995050505050505050505060405180910390f35b3480156105b857600080fd5b506105d76004803603810190808035906020019092919050505061117e565b604051808973ffffffffffffffffffffffffffffffffffffffff1673ffffffffffffffffffffffffffffffffffffffff1681526020018873ffffffffffffffffffffffffffffffffffffffff1673ffffffffffffffffffffffffffffffffffffffff1681526020018763ffffffff1663ffffffff1681526020018663ffffffff1663ffffffff1681526020018573ffffffffffffffffffffffffffffffffffffffff1673ffffffffffffffffffffffffffffffffffffffff1681526020018467ffffffffffffffff1667ffffffffffffffff1681526020018360048111156106bb57fe5b60ff16815260200180602001828103825283818151815260200191508051906020019080838360005b838110156106ff5780820151818401526020810190506106e4565b50505050905090810190601f16801561072c5780820380516001836020036101000a031916815260200191505b50995050505050505050505060405180910390f35b34801561074d57600080fd5b5061079b600480360381019080803573ffffffffffffffffffffffffffffffffffffffff169060200190929190803515159060200190929190803560ff169060200190929190505050611455565b60405180826fffffffffffffffffffffffffffffffff166fffffffffffffffffffffffffffffffff16815260200191505060405180910390f35b3480156107e157600080fd5b506108dd600480360381019080803573ffffffffffffffffffffffffffffffffffffffff169060200190929190803573ffffffffffffffffffffffffffffffffffffffff169060200190929190803563ffffffff169060200190929190803563ffffffff169060200190929190803573ffffffffffffffffffffffffffffffffffffffff169060200190929190803567ffffffffffffffff169060200190929190803560ff169060200190929190803590602001908201803590602001908080601f01602080910402602001604051908101604052809392919081815260200183838082843782019150505050505091929192905050506114cf565b005b3480156108eb57600080fd5b50610920600480360381019080803573ffffffffffffffffffffffffffffffffffffffff1690602001909291905050506118a2565b604051808267ffffffffffffffff1667ffffffffffffffff16815260200191505060405180910390f35b34801561095657600080fd5b50610998600480360381019080803573ffffffffffffffffffffffffffffffffffffffff169060200190929190803560ff1690602001909291905050506118c9565b005b60008060008060008060006109ad611953565b89610a1557600160008d73ffffffffffffffffffffffffffffffffffffffff1673ffffffffffffffffffffffffffffffffffffffff16815260200190815260200160002060009054906101000a900467ffffffffffffffff1667ffffffffffffffff16610a1c565b6000805490505b91505b816fffffffffffffffffffffffffffffffff168b6fffffffffffffffffffffffffffffffff161015610f505760008b6fffffffffffffffffffffffffffffffff16815481101515610a6c57fe5b906000526020600020906004020161010060405190810160405290816000820160009054906101000a900473ffffffffffffffffffffffffffffffffffffffff1673ffffffffffffffffffffffffffffffffffffffff1673ffffffffffffffffffffffffffffffffffffffff1681526020016001820160009054906101000a900473ffffffffffffffffffffffffffffffffffffffff1673ffffffffffffffffffffffffffffffffffffffff1673ffffffffffffffffffffffffffffffffffffffff1681526020016001820160149054906101000a900463ffffffff1663ffffffff1663ffffffff1681526020016001820160189054906101000a900463ffffffff1663ffffffff1663ffffffff1681526020016002820160009054906101000a900473ffffffffffffffffffffffffffffffffffffffff1673ffffffffffffffffffffffffffffffffffffffff1673ffffffffffffffffffffffffffffffffffffffff1681526020016002820160149054906101000a900467ffffffffffffffff1667ffffffffffffffff1667ffffffffffffffff16815260200160028201601c9054906101000a900460ff166004811115610c2557fe5b6004811115610c3057fe5b8152602001600382018054600181600116156101000203166002900480601f016020809104026020016040519081016040528092919081815260200182805460018160011615610100020316600290048015610ccd5780601f10610ca257610100808354040283529160200191610ccd565b820191906000526020600020905b815481529060010190602001808311610cb057829003601f168201915b50505050508152505090508915610d89576000896004811115610cec57fe5b60ff16141515610d5357886004811115610d0257fe5b8160c001516004811115610d1257fe5b1415610d4e578060000151816020015182608001518360a001518460c001516004811115610d3c57fe5b8f975097509750975097509750610f51565b610f43565b8060000151816020015182608001518360a001518460c001516004811115610d7757fe5b8f975097509750975097509750610f51565b8b73ffffffffffffffffffffffffffffffffffffffff1660008c6fffffffffffffffffffffffffffffffff16815481101515610dc157fe5b906000526020600020906004020160000160009054906101000a900473ffffffffffffffffffffffffffffffffffffffff1673ffffffffffffffffffffffffffffffffffffffff161480610e9257508b73ffffffffffffffffffffffffffffffffffffffff1660008c6fffffffffffffffffffffffffffffffff16815481101515610e4857fe5b906000526020600020906004020160010160009054906101000a900473ffffffffffffffffffffffffffffffffffffffff1673ffffffffffffffffffffffffffffffffffffffff16145b15610f42576000896004811115610ea557fe5b60ff16141515610f0c57886004811115610ebb57fe5b8160c001516004811115610ecb57fe5b1415610f07578060000151816020015182608001518360a001518460c001516004811115610ef557fe5b8f975097509750975097509750610f51565b610f43565b8060000151816020015182608001518360a001518460c001516004811115610f3057fe5b8f975097509750975097509750610f51565b5b8a806001019b5050610a1f565b5b50509499939850945094509450565b600080600080600080600060606000600260008b73ffffffffffffffffffffffffffffffffffffffff1673ffffffffffffffffffffffffffffffffffffffff168152602001908152602001600020549050610fba8161117e565b9850985098509850985098509850985050919395975091939597565b60026020528060005260406000206000915090505481565b600081815481101515610ffd57fe5b90600052602060002090600402016000915090508060000160009054906101000a900473ffffffffffffffffffffffffffffffffffffffff16908060010160009054906101000a900473ffffffffffffffffffffffffffffffffffffffff16908060010160149054906101000a900463ffffffff16908060010160189054906101000a900463ffffffff16908060020160009054906101000a900473ffffffffffffffffffffffffffffffffffffffff16908060020160149054906101000a900467ffffffffffffffff169080600201601c9054906101000a900460ff1690806003018054600181600116156101000203166002900480601f0160208091040260200160405190810160405280929190818152602001828054600181600116156101000203166002900480156111745780601f1061114957610100808354040283529160200191611174565b820191906000526020600020905b81548152906001019060200180831161115757829003601f168201915b5050505050905088565b60008060008060008060006060611193611953565b60008a8154811015156111a257fe5b906000526020600020906004020161010060405190810160405290816000820160009054906101000a900473ffffffffffffffffffffffffffffffffffffffff1673ffffffffffffffffffffffffffffffffffffffff1673ffffffffffffffffffffffffffffffffffffffff1681526020016001820160009054906101000a900473ffffffffffffffffffffffffffffffffffffffff1673ffffffffffffffffffffffffffffffffffffffff1673ffffffffffffffffffffffffffffffffffffffff1681526020016001820160149054906101000a900463ffffffff1663ffffffff1663ffffffff1681526020016001820160189054906101000a900463ffffffff1663ffffffff1663ffffffff1681526020016002820160009054906101000a900473ffffffffffffffffffffffffffffffffffffffff1673ffffffffffffffffffffffffffffffffffffffff1673ffffffffffffffffffffffffffffffffffffffff1681526020016002820160149054906101000a900467ffffffffffffffff1667ffffffffffffffff1667ffffffffffffffff16815260200160028201601c9054906101000a900460ff16600481111561135b57fe5b600481111561136657fe5b8152602001600382018054600181600116156101000203166002900480601f0160208091040260200160405190810160405280929190818152602001828054600181600116156101000203166002900480156114035780601f106113d857610100808354040283529160200191611403565b820191906000526020600020905b8154815290600101906020018083116113e657829003601f168201915b5050505050815250509050806000015181602001518260400151836060015184608001518560a001518660c001518760e001518090509850985098509850985098509850985050919395975091939597565b6000826114bf57600160008573ffffffffffffffffffffffffffffffffffffffff1673ffffffffffffffffffffffffffffffffffffffff16815260200190815260200160002060009054906101000a900467ffffffffffffffff1667ffffffffffffffff166114c6565b6000805490505b90509392505050565b6114d7611953565b6000610100604051908101604052808b73ffffffffffffffffffffffffffffffffffffffff1681526020018a73ffffffffffffffffffffffffffffffffffffffff1681526020018963ffffffff1681526020018863ffffffff1681526020018773ffffffffffffffffffffffffffffffffffffffff1681526020018667ffffffffffffffff16815260200185600481111561156e57fe5b8152602001848152509150600080549050905080600260008873ffffffffffffffffffffffffffffffffffffffff1673ffffffffffffffffffffffffffffffffffffffff168152602001908152602001600020819055506000829080600181540180825580915050906001820390600052602060002090600402016000909192909190915060008201518160000160006101000a81548173ffffffffffffffffffffffffffffffffffffffff021916908373ffffffffffffffffffffffffffffffffffffffff16021790555060208201518160010160006101000a81548173ffffffffffffffffffffffffffffffffffffffff021916908373ffffffffffffffffffffffffffffffffffffffff16021790555060408201518160010160146101000a81548163ffffffff021916908363ffffffff16021790555060608201518160010160186101000a81548163ffffffff021916908363ffffffff16021790555060808201518160020160006101000a81548173ffffffffffffffffffffffffffffffffffffffff021916908373ffffffffffffffffffffffffffffffffffffffff16021790555060a08201518160020160146101000a81548167ffffffffffffffff021916908367ffffffffffffffff16021790555060c082015181600201601c6101000a81548160ff0219169083600481111561176957fe5b021790555060e082015181600301908051906020019061178a9291906119fc565b50505050600160003373ffffffffffffffffffffffffffffffffffffffff1673ffffffffffffffffffffffffffffffffffffffff168152602001908152602001600020600081819054906101000a900467ffffffffffffffff168092919060010191906101000a81548167ffffffffffffffff021916908367ffffffffffffffff16021790555050600160008a73ffffffffffffffffffffffffffffffffffffffff1673ffffffffffffffffffffffffffffffffffffffff168152602001908152602001600020600081819054906101000a900467ffffffffffffffff168092919060010191906101000a81548167ffffffffffffffff021916908367ffffffffffffffff1602179055505050505050505050505050565b60016020528060005260406000206000915054906101000a900467ffffffffffffffff1681565b6000600260008473ffffffffffffffffffffffffffffffffffffffff1673ffffffffffffffffffffffffffffffffffffffff1681526020019081526020016000205490508160008281548110151561191d57fe5b9060005260206000209060040201600201601c6101000a81548160ff0219169083600481111561194957fe5b0217905550505050565b61010060405190810160405280600073ffffffffffffffffffffffffffffffffffffffff168152602001600073ffffffffffffffffffffffffffffffffffffffff168152602001600063ffffffff168152602001600063ffffffff168152602001600073ffffffffffffffffffffffffffffffffffffffff168152602001600067ffffffffffffffff168152602001600060048111156119ef57fe5b8152602001606081525090565b828054600181600116156101000203166002900490600052602060002090601f016020900481019282601f10611a3d57805160ff1916838001178555611a6b565b82800160010185558215611a6b579182015b82811115611a6a578251825591602001919060010190611a4f565b5b509050611a789190611a7c565b5090565b611a9e91905b80821115611a9a576000816000905550600101611a82565b5090565b905600a165627a7a723058207d0eb4520d2158c6ee5621dc193c63b50c85a24d623e511c761ebe8ba4fb55140029",
  "source": "pragma solidity ^0.4.2;\r\n\r\ncontract CustomerContract {\r\n    enum ContractState{\r\n    ALL,\r\n    CREATED,\r\n    CONFIRMED,\r\n    EFFECTED,\r\n    CLOSED\r\n    }\r\n\r\n    //合同内容\r\n    struct CustomerContract{\r\n    address firstParty;      //甲方地址\r\n    address secondParty;     //乙方地址\r\n    uint32 shareProfit;       //分润点 0-100 %\r\n    uint32 expireYear;        //有效时间  N 年\r\n    uint160 txHash;          //交易哈希值\r\n    uint64 timestamp;        //交易时间戳\r\n    ContractState state;     //签署状态\r\n    string remark;           //备注\r\n    }\r\n\r\n    //合约内容列表\r\n    CustomerContract[] public contracts;\r\n\r\n    //合约的序号\r\n    mapping (address => uint64) public cnounces;\r\n\r\n    //数据索引\r\n    mapping (uint160 => uint) public indexs;\r\n\r\n    //签署合约\r\n    function addContract(address firstParty,address secondParty, uint32 shareProfit, uint32 expireYear, uint160 txHash, uint64 timestamp,ContractState state,string remark) public {\r\n        CustomerContract memory con = CustomerContract(firstParty, secondParty, shareProfit, expireYear, txHash, timestamp, state,remark);\r\n        uint index=contracts.length;\r\n        indexs[txHash]=index;\r\n        contracts.push(con);\r\n        cnounces[msg.sender]++;\r\n        cnounces[secondParty]++;\r\n    }\r\n\r\n    //更新合约状态\r\n    function updateContract(uint160 txHash,ContractState state)public{\r\n        uint index=indexs[txHash];\r\n        contracts[index].state=state;\r\n    }\r\n\r\n    //按分页获取合同内容\r\n    function getContractForPaging(address useraddress,uint128 start,bool isAdmin,ContractState state)public view  returns (address,address,uint160,uint64,uint32,uint128) {\r\n        // bool isAdmin=config.isAdmin(useraddress);\r\n        uint128 total = uint128((isAdmin? contracts.length : cnounces[useraddress]));\r\n        for (; start < total; start++) {\r\n            CustomerContract memory t = contracts[start];\r\n            if (isAdmin) {\r\n                if(uint8(state)!=0){\r\n                    if(t.state==state){\r\n                        return (t.firstParty,t.secondParty,t.txHash,t.timestamp,uint32(t.state),start);\r\n                    }else{\r\n                        continue;\r\n                    }\r\n                }else{\r\n                    return (t.firstParty,t.secondParty,t.txHash,t.timestamp,uint32(t.state),start);\r\n                }\r\n            }\r\n            else {\r\n                if (contracts[start].firstParty == useraddress || contracts[start].secondParty == useraddress) {\r\n                    if(uint8(state)!=0){\r\n                        if(t.state==state){\r\n                            return (t.firstParty,t.secondParty,t.txHash,t.timestamp,uint32(t.state),start);\r\n                        }else{\r\n                            continue;\r\n                        }\r\n                    }else{\r\n                        return (t.firstParty,t.secondParty,t.txHash,t.timestamp,uint32(t.state),start);\r\n                    }\r\n                }\r\n            }\r\n        }\r\n    }\r\n\r\n    function  countContractForPaging(address useraddress,bool isAdmin,ContractState state)public view returns(uint128){\r\n        return uint128((isAdmin? contracts.length : cnounces[useraddress]));\r\n    }\r\n\r\n    //根据ID查询交易记录详情\r\n    function getContractByTxHash(uint160 txHash) public view returns(address,address,uint32,uint32,uint160,uint64,ContractState,string){\r\n        //校验数据是否存在\r\n        uint index=indexs[txHash];\r\n        return getContractDetail(index);\r\n    }\r\n\r\n    function getContractDetail(uint index) public view returns(address,address,uint32,uint32,uint160,uint64,ContractState,string){\r\n        CustomerContract memory t=contracts[index];\r\n        return(t.firstParty,t.secondParty,t.shareProfit,t.expireYear,t.txHash,t.timestamp,t.state,t.remark);\r\n    }\r\n}",
  "sourcePath": "D:\\dapps\\TTVIP\\contracts\\data\\CustomerContract.sol",
  "compiler": {
    "name": "solc",
    "version": "0.4.23+commit.124ca40d.Emscripten.clang"
  },
  "schemaVersion": "2.0.0",
  "updatedAt": "2018-05-17T06:17:56.831Z"
}