{
  "contractName": "TransactionService",
  "abi": [
    {
      "constant": false,
      "inputs": [],
      "name": "unpause",
      "outputs": [],
      "payable": false,
      "stateMutability": "nonpayable",
      "type": "function"
    },
    {
      "constant": true,
      "inputs": [],
      "name": "inited",
      "outputs": [
        {
          "name": "",
          "type": "bool"
        }
      ],
      "payable": false,
      "stateMutability": "view",
      "type": "function"
    },
    {
      "constant": true,
      "inputs": [],
      "name": "paused",
      "outputs": [
        {
          "name": "",
          "type": "bool"
        }
      ],
      "payable": false,
      "stateMutability": "view",
      "type": "function"
    },
    {
      "constant": true,
      "inputs": [],
      "name": "config",
      "outputs": [
        {
          "name": "",
          "type": "address"
        }
      ],
      "payable": false,
      "stateMutability": "view",
      "type": "function"
    },
    {
      "constant": false,
      "inputs": [],
      "name": "pause",
      "outputs": [],
      "payable": false,
      "stateMutability": "nonpayable",
      "type": "function"
    },
    {
      "constant": false,
      "inputs": [],
      "name": "refresh",
      "outputs": [],
      "payable": false,
      "stateMutability": "nonpayable",
      "type": "function"
    },
    {
      "inputs": [],
      "payable": false,
      "stateMutability": "nonpayable",
      "type": "constructor"
    },
    {
      "constant": false,
      "inputs": [
        {
          "name": "from",
          "type": "address"
        },
        {
          "name": "to",
          "type": "address"
        },
        {
          "name": "amount",
          "type": "uint64"
        },
        {
          "name": "txHash",
          "type": "uint160"
        },
        {
          "name": "timestamp",
          "type": "uint64"
        },
        {
          "name": "remark",
          "type": "string"
        }
      ],
      "name": "transform",
      "outputs": [],
      "payable": false,
      "stateMutability": "nonpayable",
      "type": "function"
    },
    {
      "constant": false,
      "inputs": [
        {
          "name": "to",
          "type": "address"
        },
        {
          "name": "txHash",
          "type": "uint160"
        },
        {
          "name": "amount",
          "type": "uint64"
        },
        {
          "name": "remark",
          "type": "string"
        }
      ],
      "name": "addFund",
      "outputs": [
        {
          "name": "touser",
          "type": "address"
        },
        {
          "name": "balance",
          "type": "uint256"
        }
      ],
      "payable": false,
      "stateMutability": "nonpayable",
      "type": "function"
    },
    {
      "constant": true,
      "inputs": [
        {
          "name": "to",
          "type": "address"
        },
        {
          "name": "start",
          "type": "uint128"
        },
        {
          "name": "rows",
          "type": "uint128"
        }
      ],
      "name": "getTransactions",
      "outputs": [
        {
          "name": "",
          "type": "uint160[5][]"
        }
      ],
      "payable": false,
      "stateMutability": "view",
      "type": "function"
    },
    {
      "constant": true,
      "inputs": [
        {
          "name": "txHash",
          "type": "uint160"
        }
      ],
      "name": "getTransactionDetail",
      "outputs": [
        {
          "name": "",
          "type": "uint160"
        },
        {
          "name": "",
          "type": "address"
        },
        {
          "name": "",
          "type": "address"
        },
        {
          "name": "",
          "type": "uint128"
        },
        {
          "name": "",
          "type": "uint64"
        },
        {
          "name": "",
          "type": "string"
        }
      ],
      "payable": false,
      "stateMutability": "view",
      "type": "function"
    },
    {
      "constant": false,
      "inputs": [
        {
          "name": "_config",
          "type": "address"
        }
      ],
      "name": "init",
      "outputs": [],
      "payable": false,
      "stateMutability": "nonpayable",
      "type": "function"
    }
  ],
  "bytecode": "0x60806040526000600160146101000a81548160ff0219169083151502179055506000600360146101000a81548160ff02191690831515021790555034801561004657600080fd5b5033600160006101000a81548173ffffffffffffffffffffffffffffffffffffffff021916908373ffffffffffffffffffffffffffffffffffffffff160217905550611afa806100976000396000f3006080604052600436106100af576000357c0100000000000000000000000000000000000000000000000000000000900463ffffffff16806319ab453c146100b45780633f4ba83a146100f757806343c885ba1461010e57806358afdd051461013d5780635c975abb146102d857806360e768e31461030757806379502c551461040b5780638456cb59146104625780639de0a3b014610479578063b1ff6bb21461056c578063f8ac93e81461065d575b600080fd5b3480156100c057600080fd5b506100f5600480360381019080803573ffffffffffffffffffffffffffffffffffffffff169060200190929190505050610674565b005b34801561010357600080fd5b5061010c6109cd565b005b34801561011a57600080fd5b50610123610a61565b604051808215151515815260200191505060405180910390f35b34801561014957600080fd5b5061017e600480360381019080803573ffffffffffffffffffffffffffffffffffffffff169060200190929190505050610a74565b604051808773ffffffffffffffffffffffffffffffffffffffff1673ffffffffffffffffffffffffffffffffffffffff1681526020018673ffffffffffffffffffffffffffffffffffffffff1673ffffffffffffffffffffffffffffffffffffffff1681526020018573ffffffffffffffffffffffffffffffffffffffff1673ffffffffffffffffffffffffffffffffffffffff168152602001846fffffffffffffffffffffffffffffffff166fffffffffffffffffffffffffffffffff1681526020018367ffffffffffffffff1667ffffffffffffffff16815260200180602001828103825283818151815260200191508051906020019080838360005b8381101561029857808201518184015260208101905061027d565b50505050905090810190601f1680156102c55780820380516001836020036101000a031916815260200191505b5097505050505050505060405180910390f35b3480156102e457600080fd5b506102ed610c13565b604051808215151515815260200191505060405180910390f35b34801561031357600080fd5b506103c2600480360381019080803573ffffffffffffffffffffffffffffffffffffffff169060200190929190803573ffffffffffffffffffffffffffffffffffffffff169060200190929190803567ffffffffffffffff169060200190929190803590602001908201803590602001908080601f0160208091040260200160405190810160405280939291908181526020018383808284378201915050505050509192919290505050610c26565b604051808373ffffffffffffffffffffffffffffffffffffffff1673ffffffffffffffffffffffffffffffffffffffff1681526020018281526020019250505060405180910390f35b34801561041757600080fd5b50610420611016565b604051808273ffffffffffffffffffffffffffffffffffffffff1673ffffffffffffffffffffffffffffffffffffffff16815260200191505060405180910390f35b34801561046e57600080fd5b5061047761103b565b005b34801561048557600080fd5b506104f2600480360381019080803573ffffffffffffffffffffffffffffffffffffffff16906020019092919080356fffffffffffffffffffffffffffffffff16906020019092919080356fffffffffffffffffffffffffffffffff1690602001909291905050506110cf565b60405180806020018281038252838181518152602001915080516000925b8184101561055b57828490602001906020020151600560200280838360005b8381101561054a57808201518184015260208101905061052f565b505050509050019260010192610510565b925050509250505060405180910390f35b34801561057857600080fd5b5061065b600480360381019080803573ffffffffffffffffffffffffffffffffffffffff169060200190929190803573ffffffffffffffffffffffffffffffffffffffff169060200190929190803567ffffffffffffffff169060200190929190803573ffffffffffffffffffffffffffffffffffffffff169060200190929190803567ffffffffffffffff169060200190929190803590602001908201803590602001908080601f0160208091040260200160405190810160405280939291908181526020018383808284378201915050505050509192919290505050611522565b005b34801561066957600080fd5b50610672611aa9565b005b600080826000806101000a81548173ffffffffffffffffffffffffffffffffffffffff021916908373ffffffffffffffffffffffffffffffffffffffff1602179055506000809054906101000a900473ffffffffffffffffffffffffffffffffffffffff1673ffffffffffffffffffffffffffffffffffffffff1663879c30c66040518163ffffffff167c01000000000000000000000000000000000000000000000000000000000281526004018080602001828103825260138152602001807f437573746f6d65725472616e73616374696f6e00000000000000000000000000815250602001915050602060405180830381600087803b15801561077857600080fd5b505af115801561078c573d6000803e3d6000fd5b505050506040513d60208110156107a257600080fd5b81019080805190602001909291905050509150600073ffffffffffffffffffffffffffffffffffffffff168273ffffffffffffffffffffffffffffffffffffffff16141515156107f157600080fd5b81600260006101000a81548173ffffffffffffffffffffffffffffffffffffffff021916908373ffffffffffffffffffffffffffffffffffffffff1602179055506000809054906101000a900473ffffffffffffffffffffffffffffffffffffffff1673ffffffffffffffffffffffffffffffffffffffff1663879c30c66040518163ffffffff167c010000000000000000000000000000000000000000000000000000000002815260040180806020018281038252600e8152602001807f4163636f756e7453657276696365000000000000000000000000000000000000815250602001915050602060405180830381600087803b1580156108f357600080fd5b505af1158015610907573d6000803e3d6000fd5b505050506040513d602081101561091d57600080fd5b81019080805190602001909291905050509050600073ffffffffffffffffffffffffffffffffffffffff168173ffffffffffffffffffffffffffffffffffffffff161415151561096c57600080fd5b80600360006101000a81548173ffffffffffffffffffffffffffffffffffffffff021916908373ffffffffffffffffffffffffffffffffffffffff1602179055506001600360146101000a81548160ff021916908315150217905550505050565b600160009054906101000a900473ffffffffffffffffffffffffffffffffffffffff1673ffffffffffffffffffffffffffffffffffffffff163373ffffffffffffffffffffffffffffffffffffffff16141515610a2957600080fd5b600160149054906101000a900460ff161515610a4457600080fd5b6000600160146101000a81548160ff021916908315150217905550565b600360149054906101000a900460ff1681565b60008060008060006060600260009054906101000a900473ffffffffffffffffffffffffffffffffffffffff1673ffffffffffffffffffffffffffffffffffffffff166365391c20886040518263ffffffff167c0100000000000000000000000000000000000000000000000000000000028152600401808273ffffffffffffffffffffffffffffffffffffffff1673ffffffffffffffffffffffffffffffffffffffff168152602001915050600060405180830381600087803b158015610b3b57600080fd5b505af1158015610b4f573d6000803e3d6000fd5b505050506040513d6000823e3d601f19601f8201168201806040525060c0811015610b7957600080fd5b8101908080519060200190929190805190602001909291908051906020019092919080519060200190929190805190602001909291908051640100000000811115610bc357600080fd5b82810190506020810184811115610bd957600080fd5b8151856001820283011164010000000082111715610bf657600080fd5b505092919050505095509550955095509550955091939550919395565b600160149054906101000a900460ff1681565b60008060008060009054906101000a900473ffffffffffffffffffffffffffffffffffffffff1673ffffffffffffffffffffffffffffffffffffffff166324d7806c336040518263ffffffff167c0100000000000000000000000000000000000000000000000000000000028152600401808273ffffffffffffffffffffffffffffffffffffffff1673ffffffffffffffffffffffffffffffffffffffff168152602001915050602060405180830381600087803b158015610ce757600080fd5b505af1158015610cfb573d6000803e3d6000fd5b505050506040513d6020811015610d1157600080fd5b81019080805190602001909291905050501515610d2d57600080fd5b429050600260009054906101000a900473ffffffffffffffffffffffffffffffffffffffff1673ffffffffffffffffffffffffffffffffffffffff1663ecfa4ba1600089888a868a6040518763ffffffff167c0100000000000000000000000000000000000000000000000000000000028152600401808773ffffffffffffffffffffffffffffffffffffffff1673ffffffffffffffffffffffffffffffffffffffff1681526020018673ffffffffffffffffffffffffffffffffffffffff1673ffffffffffffffffffffffffffffffffffffffff1681526020018567ffffffffffffffff1667ffffffffffffffff1681526020018473ffffffffffffffffffffffffffffffffffffffff1673ffffffffffffffffffffffffffffffffffffffff1681526020018367ffffffffffffffff1667ffffffffffffffff16815260200180602001828103825283818151815260200191508051906020019080838360005b83811015610eaa578082015181840152602081019050610e8f565b50505050905090810190601f168015610ed75780820380516001836020036101000a031916815260200191505b50975050505050505050600060405180830381600087803b158015610efb57600080fd5b505af1158015610f0f573d6000803e3d6000fd5b50505050600360009054906101000a900473ffffffffffffffffffffffffffffffffffffffff1673ffffffffffffffffffffffffffffffffffffffff16637907f13d88876040518363ffffffff167c0100000000000000000000000000000000000000000000000000000000028152600401808373ffffffffffffffffffffffffffffffffffffffff1673ffffffffffffffffffffffffffffffffffffffff1681526020018267ffffffffffffffff166fffffffffffffffffffffffffffffffff16815260200192505050600060405180830381600087803b158015610ff457600080fd5b505af1158015611008573d6000803e3d6000fd5b505050505094509492505050565b6000809054906101000a900473ffffffffffffffffffffffffffffffffffffffff1681565b600160009054906101000a900473ffffffffffffffffffffffffffffffffffffffff1673ffffffffffffffffffffffffffffffffffffffff163373ffffffffffffffffffffffffffffffffffffffff1614151561109757600080fd5b600160149054906101000a900460ff161515156110b357600080fd5b60018060146101000a81548160ff021916908315150217905550565b6060806000806000806000806000808a6fffffffffffffffffffffffffffffffff1660405190808252806020026020018201604052801561112a57816020015b611117611aab565b81526020019060019003908161110f5790505b509850600097505b8a6fffffffffffffffffffffffffffffffff1688101561150f57600260009054906101000a900473ffffffffffffffffffffffffffffffffffffffff1673ffffffffffffffffffffffffffffffffffffffff16631f9d762f328f8f6000809054906101000a900473ffffffffffffffffffffffffffffffffffffffff1673ffffffffffffffffffffffffffffffffffffffff166324d7806c326040518263ffffffff167c0100000000000000000000000000000000000000000000000000000000028152600401808273ffffffffffffffffffffffffffffffffffffffff1673ffffffffffffffffffffffffffffffffffffffff168152602001915050602060405180830381600087803b15801561124957600080fd5b505af115801561125d573d6000803e3d6000fd5b505050506040513d602081101561127357600080fd5b81019080805190602001909291905050506040518563ffffffff167c0100000000000000000000000000000000000000000000000000000000028152600401808573ffffffffffffffffffffffffffffffffffffffff1673ffffffffffffffffffffffffffffffffffffffff1681526020018473ffffffffffffffffffffffffffffffffffffffff1673ffffffffffffffffffffffffffffffffffffffff168152602001836fffffffffffffffffffffffffffffffff166fffffffffffffffffffffffffffffffff1681526020018215151515815260200194505050505060e060405180830381600087803b15801561136b57600080fd5b505af115801561137f573d6000803e3d6000fd5b505050506040513d60e081101561139557600080fd5b8101908080519060200190929190805190602001909291908051906020019092919080519060200190929190805190602001909291908051906020019092919080519060200190929190505050965096509650965096509650965060a0604051908101604052808873ffffffffffffffffffffffffffffffffffffffff1673ffffffffffffffffffffffffffffffffffffffff1681526020018773ffffffffffffffffffffffffffffffffffffffff1673ffffffffffffffffffffffffffffffffffffffff1681526020018673ffffffffffffffffffffffffffffffffffffffff1673ffffffffffffffffffffffffffffffffffffffff168152602001856fffffffffffffffffffffffffffffffff1673ffffffffffffffffffffffffffffffffffffffff1681526020018467ffffffffffffffff1673ffffffffffffffffffffffffffffffffffffffff1681525089898151811015156114f257fe5b90602001906020020181905250819b508780600101985050611132565b8899505050505050505050509392505050565b600073ffffffffffffffffffffffffffffffffffffffff168673ffffffffffffffffffffffffffffffffffffffff161415801561158b57508473ffffffffffffffffffffffffffffffffffffffff168673ffffffffffffffffffffffffffffffffffffffff1614155b80156115a1575060008467ffffffffffffffff16115b15156115ac57600080fd5b8367ffffffffffffffff16600360009054906101000a900473ffffffffffffffffffffffffffffffffffffffff1673ffffffffffffffffffffffffffffffffffffffff1663f8b2cb4f886040518263ffffffff167c0100000000000000000000000000000000000000000000000000000000028152600401808273ffffffffffffffffffffffffffffffffffffffff1673ffffffffffffffffffffffffffffffffffffffff168152602001915050602060405180830381600087803b15801561167457600080fd5b505af1158015611688573d6000803e3d6000fd5b505050506040513d602081101561169e57600080fd5b81019080805190602001909291905050506fffffffffffffffffffffffffffffffff161115156116ca57fe5b600260009054906101000a900473ffffffffffffffffffffffffffffffffffffffff1673ffffffffffffffffffffffffffffffffffffffff1663ecfa4ba13387878787876040518763ffffffff167c0100000000000000000000000000000000000000000000000000000000028152600401808773ffffffffffffffffffffffffffffffffffffffff1673ffffffffffffffffffffffffffffffffffffffff1681526020018673ffffffffffffffffffffffffffffffffffffffff1673ffffffffffffffffffffffffffffffffffffffff1681526020018567ffffffffffffffff1667ffffffffffffffff1681526020018473ffffffffffffffffffffffffffffffffffffffff1673ffffffffffffffffffffffffffffffffffffffff1681526020018367ffffffffffffffff1667ffffffffffffffff16815260200180602001828103825283818151815260200191508051906020019080838360005b83811015611843578082015181840152602081019050611828565b50505050905090810190601f1680156118705780820380516001836020036101000a031916815260200191505b50975050505050505050600060405180830381600087803b15801561189457600080fd5b505af11580156118a8573d6000803e3d6000fd5b50505050600360009054906101000a900473ffffffffffffffffffffffffffffffffffffffff1673ffffffffffffffffffffffffffffffffffffffff16637907f13d87866000036040518363ffffffff167c0100000000000000000000000000000000000000000000000000000000028152600401808373ffffffffffffffffffffffffffffffffffffffff1673ffffffffffffffffffffffffffffffffffffffff1681526020018267ffffffffffffffff166fffffffffffffffffffffffffffffffff16815260200192505050600060405180830381600087803b15801561199057600080fd5b505af11580156119a4573d6000803e3d6000fd5b50505050600360009054906101000a900473ffffffffffffffffffffffffffffffffffffffff1673ffffffffffffffffffffffffffffffffffffffff16637907f13d86866040518363ffffffff167c0100000000000000000000000000000000000000000000000000000000028152600401808373ffffffffffffffffffffffffffffffffffffffff1673ffffffffffffffffffffffffffffffffffffffff1681526020018267ffffffffffffffff166fffffffffffffffffffffffffffffffff16815260200192505050600060405180830381600087803b158015611a8957600080fd5b505af1158015611a9d573d6000803e3d6000fd5b50505050505050505050565b565b60a0604051908101604052806005906020820280388339808201915050905050905600a165627a7a7230582033d5d38546e5daa913a41e8440737473a3381034a6453e385438b21009e21dee0029",
  "source": "pragma solidity ^0.4.2;\r\nimport \"./Configurable.sol\";\r\nimport \"../data/CustomerAccount.sol\";\r\nimport \"../data/CustomerTransaction.sol\";\r\nimport \"../lifecycle/Upgradeable.sol\";\r\ncontract TransactionService is Configurable,Upgradeable{\r\n    CustomerTransaction data;\r\n    CustomerAccount account;\r\n    bool public inited=false;\r\n\r\n\r\n    modifier whenInited() {\r\n        require(inited);\r\n        _;\r\n    }\r\n    modifier onlyAdmin() {\r\n        require(config.isAdmin(msg.sender));\r\n        _;\r\n    }\r\n\r\n    //构造函数\r\n    function TransactionService()public{\r\n\r\n    }\r\n\r\n    //发起交易\r\n    function transform(address from,address to, uint64 amount, uint160 txHash,uint64 timestamp, string remark) public {\r\n        require(from!=address(0)&&from!=address(to)&&amount>0);\r\n        assert (account.getBalance(from)>amount);\r\n        data.addRecord(msg.sender, to, amount, txHash, timestamp, remark);\r\n        account.updateBalance(from,-amount);\r\n        account.updateBalance(to,amount);\r\n    }\r\n\r\n    //给账户加款\r\n    function addFund(address to, uint160 txHash, uint64 amount, string remark) public onlyAdmin() returns (address touser, uint balance){\r\n        var timestamp = uint64(now);\r\n        data.addRecord(address(0), to, amount, txHash, timestamp, remark);\r\n        account.updateBalance(to,amount);\r\n    }\r\n\r\n    //根据发送人或者接收人查看交易记录\r\n    function getTransactions(address to,uint128 start,uint128 rows) public view returns (uint160[5][]){\r\n        uint160[5][] memory temp = new uint160[5][](rows);\r\n        for (uint i = 0; i <rows; i++) {\r\n            var (txHash,_from,_to,amount,timestamp,_start,total)=data.getTransactionsForPaging(tx.origin,to,start,config.isAdmin(tx.origin));\r\n            temp[i] = [txHash,uint160(_from),uint160(_to),amount,timestamp];\r\n            start=_start;\r\n        }\r\n        return temp;\r\n    }\r\n\r\n    //根据ID交易记录详情\r\n    function getTransactionDetail(uint160 txHash) public view returns (uint160, address, address, uint128, uint64, string){\r\n        return data.getTransactionByTxHash(txHash);\r\n    }\r\n\r\n    function init(address _config){\r\n        config=Config(_config);\r\n        address addr_tx=config.getCurrentVersion(\"CustomerTransaction\");\r\n        require(addr_tx!=address(0));\r\n        data=CustomerTransaction(addr_tx);\r\n        address addr_acc=config.getCurrentVersion(\"AccountService\");\r\n        require(addr_acc!=address(0));\r\n        account =CustomerAccount(addr_acc);\r\n        inited=true;\r\n    }\r\n}",
  "sourcePath": "D:\\dapps\\TTVIP\\contracts\\service\\TransactionService.sol",
  "compiler": {
    "name": "solc",
    "version": "0.4.23+commit.124ca40d.Emscripten.clang"
  },
  "schemaVersion": "2.0.0",
  "updatedAt": "2018-05-17T06:18:01.348Z"
}